{
	"contracts/loops.sol": {
		"myLoopingPracticeContract": {
			"abi": [
				{
					"inputs": [],
					"name": "evenNumbersLoop",
					"outputs": [
						{
							"internalType": "uint256",
							"name": "",
							"type": "uint256"
						}
					],
					"stateMutability": "view",
					"type": "function"
				},
				{
					"inputs": [
						{
							"internalType": "uint256",
							"name": "",
							"type": "uint256"
						}
					],
					"name": "longList",
					"outputs": [
						{
							"internalType": "uint256",
							"name": "",
							"type": "uint256"
						}
					],
					"stateMutability": "view",
					"type": "function"
				},
				{
					"inputs": [
						{
							"internalType": "uint256",
							"name": "userNumber",
							"type": "uint256"
						}
					],
					"name": "numbersListLoop",
					"outputs": [
						{
							"internalType": "bool",
							"name": "",
							"type": "bool"
						}
					],
					"stateMutability": "view",
					"type": "function"
				}
			],
			"devdoc": {
				"kind": "dev",
				"methods": {},
				"version": 1
			},
			"evm": {
				"assembly": "    /* \"contracts/loops.sol\":1129:1879  contract myLoopingPracticeContract {... */\n  mstore(0x40, 0x80)\n    /* \"contracts/loops.sol\":1170:1248  uint [] public longList = [1,2,3,4,5,6,7,8,9,10,11,12,13,14,15,16,17,18,19,20] */\n  mload(0x40)\n  dup1\n  0x0280\n  add\n  0x40\n  mstore\n  dup1\n    /* \"contracts/loops.sol\":1197:1198  1 */\n  0x01\n    /* \"contracts/loops.sol\":1170:1248  uint [] public longList = [1,2,3,4,5,6,7,8,9,10,11,12,13,14,15,16,17,18,19,20] */\n  0xff\n  and\n  dup2\n  mstore\n  0x20\n  add\n    /* \"contracts/loops.sol\":1199:1200  2 */\n  0x02\n    /* \"contracts/loops.sol\":1170:1248  uint [] public longList = [1,2,3,4,5,6,7,8,9,10,11,12,13,14,15,16,17,18,19,20] */\n  0xff\n  and\n  dup2\n  mstore\n  0x20\n  add\n    /* \"contracts/loops.sol\":1201:1202  3 */\n  0x03\n    /* \"contracts/loops.sol\":1170:1248  uint [] public longList = [1,2,3,4,5,6,7,8,9,10,11,12,13,14,15,16,17,18,19,20] */\n  0xff\n  and\n  dup2\n  mstore\n  0x20\n  add\n    /* \"contracts/loops.sol\":1203:1204  4 */\n  0x04\n    /* \"contracts/loops.sol\":1170:1248  uint [] public longList = [1,2,3,4,5,6,7,8,9,10,11,12,13,14,15,16,17,18,19,20] */\n  0xff\n  and\n  dup2\n  mstore\n  0x20\n  add\n    /* \"contracts/loops.sol\":1205:1206  5 */\n  0x05\n    /* \"contracts/loops.sol\":1170:1248  uint [] public longList = [1,2,3,4,5,6,7,8,9,10,11,12,13,14,15,16,17,18,19,20] */\n  0xff\n  and\n  dup2\n  mstore\n  0x20\n  add\n    /* \"contracts/loops.sol\":1207:1208  6 */\n  0x06\n    /* \"contracts/loops.sol\":1170:1248  uint [] public longList = [1,2,3,4,5,6,7,8,9,10,11,12,13,14,15,16,17,18,19,20] */\n  0xff\n  and\n  dup2\n  mstore\n  0x20\n  add\n    /* \"contracts/loops.sol\":1209:1210  7 */\n  0x07\n    /* \"contracts/loops.sol\":1170:1248  uint [] public longList = [1,2,3,4,5,6,7,8,9,10,11,12,13,14,15,16,17,18,19,20] */\n  0xff\n  and\n  dup2\n  mstore\n  0x20\n  add\n    /* \"contracts/loops.sol\":1211:1212  8 */\n  0x08\n    /* \"contracts/loops.sol\":1170:1248  uint [] public longList = [1,2,3,4,5,6,7,8,9,10,11,12,13,14,15,16,17,18,19,20] */\n  0xff\n  and\n  dup2\n  mstore\n  0x20\n  add\n    /* \"contracts/loops.sol\":1213:1214  9 */\n  0x09\n    /* \"contracts/loops.sol\":1170:1248  uint [] public longList = [1,2,3,4,5,6,7,8,9,10,11,12,13,14,15,16,17,18,19,20] */\n  0xff\n  and\n  dup2\n  mstore\n  0x20\n  add\n    /* \"contracts/loops.sol\":1215:1217  10 */\n  0x0a\n    /* \"contracts/loops.sol\":1170:1248  uint [] public longList = [1,2,3,4,5,6,7,8,9,10,11,12,13,14,15,16,17,18,19,20] */\n  0xff\n  and\n  dup2\n  mstore\n  0x20\n  add\n    /* \"contracts/loops.sol\":1218:1220  11 */\n  0x0b\n    /* \"contracts/loops.sol\":1170:1248  uint [] public longList = [1,2,3,4,5,6,7,8,9,10,11,12,13,14,15,16,17,18,19,20] */\n  0xff\n  and\n  dup2\n  mstore\n  0x20\n  add\n    /* \"contracts/loops.sol\":1221:1223  12 */\n  0x0c\n    /* \"contracts/loops.sol\":1170:1248  uint [] public longList = [1,2,3,4,5,6,7,8,9,10,11,12,13,14,15,16,17,18,19,20] */\n  0xff\n  and\n  dup2\n  mstore\n  0x20\n  add\n    /* \"contracts/loops.sol\":1224:1226  13 */\n  0x0d\n    /* \"contracts/loops.sol\":1170:1248  uint [] public longList = [1,2,3,4,5,6,7,8,9,10,11,12,13,14,15,16,17,18,19,20] */\n  0xff\n  and\n  dup2\n  mstore\n  0x20\n  add\n    /* \"contracts/loops.sol\":1227:1229  14 */\n  0x0e\n    /* \"contracts/loops.sol\":1170:1248  uint [] public longList = [1,2,3,4,5,6,7,8,9,10,11,12,13,14,15,16,17,18,19,20] */\n  0xff\n  and\n  dup2\n  mstore\n  0x20\n  add\n    /* \"contracts/loops.sol\":1230:1232  15 */\n  0x0f\n    /* \"contracts/loops.sol\":1170:1248  uint [] public longList = [1,2,3,4,5,6,7,8,9,10,11,12,13,14,15,16,17,18,19,20] */\n  0xff\n  and\n  dup2\n  mstore\n  0x20\n  add\n    /* \"contracts/loops.sol\":1233:1235  16 */\n  0x10\n    /* \"contracts/loops.sol\":1170:1248  uint [] public longList = [1,2,3,4,5,6,7,8,9,10,11,12,13,14,15,16,17,18,19,20] */\n  0xff\n  and\n  dup2\n  mstore\n  0x20\n  add\n    /* \"contracts/loops.sol\":1236:1238  17 */\n  0x11\n    /* \"contracts/loops.sol\":1170:1248  uint [] public longList = [1,2,3,4,5,6,7,8,9,10,11,12,13,14,15,16,17,18,19,20] */\n  0xff\n  and\n  dup2\n  mstore\n  0x20\n  add\n    /* \"contracts/loops.sol\":1239:1241  18 */\n  0x12\n    /* \"contracts/loops.sol\":1170:1248  uint [] public longList = [1,2,3,4,5,6,7,8,9,10,11,12,13,14,15,16,17,18,19,20] */\n  0xff\n  and\n  dup2\n  mstore\n  0x20\n  add\n    /* \"contracts/loops.sol\":1242:1244  19 */\n  0x13\n    /* \"contracts/loops.sol\":1170:1248  uint [] public longList = [1,2,3,4,5,6,7,8,9,10,11,12,13,14,15,16,17,18,19,20] */\n  0xff\n  and\n  dup2\n  mstore\n  0x20\n  add\n    /* \"contracts/loops.sol\":1245:1247  20 */\n  0x14\n    /* \"contracts/loops.sol\":1170:1248  uint [] public longList = [1,2,3,4,5,6,7,8,9,10,11,12,13,14,15,16,17,18,19,20] */\n  0xff\n  and\n  dup2\n  mstore\n  pop\n  0x00\n  swap1\n  0x14\n  tag_1\n  swap3\n  swap2\n  swap1\n  tag_2\n  jump\t// in\ntag_1:\n  pop\n    /* \"contracts/loops.sol\":1254:1290  uint [] numbersList = [1, 4, 34, 56] */\n  mload(0x40)\n  dup1\n  0x80\n  add\n  0x40\n  mstore\n  dup1\n    /* \"contracts/loops.sol\":1277:1278  1 */\n  0x01\n    /* \"contracts/loops.sol\":1254:1290  uint [] numbersList = [1, 4, 34, 56] */\n  0xff\n  and\n  dup2\n  mstore\n  0x20\n  add\n    /* \"contracts/loops.sol\":1280:1281  4 */\n  0x04\n    /* \"contracts/loops.sol\":1254:1290  uint [] numbersList = [1, 4, 34, 56] */\n  0xff\n  and\n  dup2\n  mstore\n  0x20\n  add\n    /* \"contracts/loops.sol\":1283:1285  34 */\n  0x22\n    /* \"contracts/loops.sol\":1254:1290  uint [] numbersList = [1, 4, 34, 56] */\n  0xff\n  and\n  dup2\n  mstore\n  0x20\n  add\n    /* \"contracts/loops.sol\":1287:1289  56 */\n  0x38\n    /* \"contracts/loops.sol\":1254:1290  uint [] numbersList = [1, 4, 34, 56] */\n  0xff\n  and\n  dup2\n  mstore\n  pop\n  0x01\n  swap1\n  0x04\n  tag_3\n  swap3\n  swap2\n  swap1\n  tag_4\n  jump\t// in\ntag_3:\n  pop\n    /* \"contracts/loops.sol\":1129:1879  contract myLoopingPracticeContract {... */\n  callvalue\n  dup1\n  iszero\n  tag_5\n  jumpi\n  0x00\n  dup1\n  revert\ntag_5:\n  pop\n  jump(tag_6)\ntag_2:\n  dup3\n  dup1\n  sload\n  dup3\n  dup3\n  sstore\n  swap1\n  0x00\n  mstore\n  keccak256(0x00, 0x20)\n  swap1\n  dup2\n  add\n  swap3\n  dup3\n  iszero\n  tag_7\n  jumpi\n  swap2\n  0x20\n  mul\n  dup3\n  add\ntag_8:\n  dup3\n  dup2\n  gt\n  iszero\n  tag_9\n  jumpi\n  dup3\n  mload\n  dup3\n  swap1\n  0xff\n  and\n  swap1\n  sstore\n  swap2\n  0x20\n  add\n  swap2\n  swap1\n  0x01\n  add\n  swap1\n  jump(tag_8)\ntag_9:\ntag_7:\n  pop\n  swap1\n  pop\n  tag_10\n  swap2\n  swap1\n  tag_11\n  jump\t// in\ntag_10:\n  pop\n  swap1\n  jump\t// out\ntag_4:\n  dup3\n  dup1\n  sload\n  dup3\n  dup3\n  sstore\n  swap1\n  0x00\n  mstore\n  keccak256(0x00, 0x20)\n  swap1\n  dup2\n  add\n  swap3\n  dup3\n  iszero\n  tag_12\n  jumpi\n  swap2\n  0x20\n  mul\n  dup3\n  add\ntag_13:\n  dup3\n  dup2\n  gt\n  iszero\n  tag_14\n  jumpi\n  dup3\n  mload\n  dup3\n  swap1\n  0xff\n  and\n  swap1\n  sstore\n  swap2\n  0x20\n  add\n  swap2\n  swap1\n  0x01\n  add\n  swap1\n  jump(tag_13)\ntag_14:\ntag_12:\n  pop\n  swap1\n  pop\n  tag_15\n  swap2\n  swap1\n  tag_11\n  jump\t// in\ntag_15:\n  pop\n  swap1\n  jump\t// out\ntag_11:\ntag_16:\n  dup1\n  dup3\n  gt\n  iszero\n  tag_17\n  jumpi\n  0x00\n  dup2\n  0x00\n  swap1\n  sstore\n  pop\n  0x01\n  add\n  jump(tag_16)\ntag_17:\n  pop\n  swap1\n  jump\t// out\ntag_6:\n  dataSize(sub_0)\n  dup1\n  dataOffset(sub_0)\n  0x00\n  codecopy\n  0x00\n  return\nstop\n\nsub_0: assembly {\n        /* \"contracts/loops.sol\":1129:1879  contract myLoopingPracticeContract {... */\n      mstore(0x40, 0x80)\n      callvalue\n      dup1\n      iszero\n      tag_1\n      jumpi\n      0x00\n      dup1\n      revert\n    tag_1:\n      pop\n      jumpi(tag_2, lt(calldatasize, 0x04))\n      shr(0xe0, calldataload(0x00))\n      dup1\n      0x5318425e\n      eq\n      tag_3\n      jumpi\n      dup1\n      0xe472fe4c\n      eq\n      tag_4\n      jumpi\n      dup1\n      0xed25cf75\n      eq\n      tag_5\n      jumpi\n    tag_2:\n      0x00\n      dup1\n      revert\n        /* \"contracts/loops.sol\":1297:1619  function numbersListLoop(uint userNumber) public view returns (bool) {... */\n    tag_3:\n      tag_6\n      0x04\n      dup1\n      calldatasize\n      sub\n      dup2\n      add\n      swap1\n      tag_7\n      swap2\n      swap1\n      tag_8\n      jump\t// in\n    tag_7:\n      tag_9\n      jump\t// in\n    tag_6:\n      mload(0x40)\n      tag_10\n      swap2\n      swap1\n      tag_11\n      jump\t// in\n    tag_10:\n      mload(0x40)\n      dup1\n      swap2\n      sub\n      swap1\n      return\n        /* \"contracts/loops.sol\":1170:1248  uint [] public longList = [1,2,3,4,5,6,7,8,9,10,11,12,13,14,15,16,17,18,19,20] */\n    tag_4:\n      tag_12\n      0x04\n      dup1\n      calldatasize\n      sub\n      dup2\n      add\n      swap1\n      tag_13\n      swap2\n      swap1\n      tag_8\n      jump\t// in\n    tag_13:\n      tag_14\n      jump\t// in\n    tag_12:\n      mload(0x40)\n      tag_15\n      swap2\n      swap1\n      tag_16\n      jump\t// in\n    tag_15:\n      mload(0x40)\n      dup1\n      swap2\n      sub\n      swap1\n      return\n        /* \"contracts/loops.sol\":1625:1877  function evenNumbersLoop () public view returns (uint) {... */\n    tag_5:\n      tag_17\n      tag_18\n      jump\t// in\n    tag_17:\n      mload(0x40)\n      tag_19\n      swap2\n      swap1\n      tag_16\n      jump\t// in\n    tag_19:\n      mload(0x40)\n      dup1\n      swap2\n      sub\n      swap1\n      return\n        /* \"contracts/loops.sol\":1297:1619  function numbersListLoop(uint userNumber) public view returns (bool) {... */\n    tag_9:\n        /* \"contracts/loops.sol\":1360:1364  bool */\n      0x00\n        /* \"contracts/loops.sol\":1385:1402  bool numberExists */\n      dup1\n        /* \"contracts/loops.sol\":1405:1410  false */\n      0x00\n        /* \"contracts/loops.sol\":1385:1410  bool numberExists = false */\n      swap1\n      pop\n        /* \"contracts/loops.sol\":1434:1440  uint i */\n      0x00\n        /* \"contracts/loops.sol\":1429:1584  for (uint i = 0; i < numbersList.length; i++){... */\n    tag_21:\n        /* \"contracts/loops.sol\":1450:1461  numbersList */\n      0x01\n        /* \"contracts/loops.sol\":1450:1468  numbersList.length */\n      dup1\n      sload\n      swap1\n      pop\n        /* \"contracts/loops.sol\":1446:1447  i */\n      dup2\n        /* \"contracts/loops.sol\":1446:1468  i < numbersList.length */\n      lt\n        /* \"contracts/loops.sol\":1429:1584  for (uint i = 0; i < numbersList.length; i++){... */\n      iszero\n      tag_22\n      jumpi\n        /* \"contracts/loops.sol\":1510:1520  userNumber */\n      dup4\n        /* \"contracts/loops.sol\":1492:1503  numbersList */\n      0x01\n        /* \"contracts/loops.sol\":1504:1505  i */\n      dup3\n        /* \"contracts/loops.sol\":1492:1506  numbersList[i] */\n      dup2\n      sload\n      dup2\n      lt\n      tag_24\n      jumpi\n      tag_25\n      tag_26\n      jump\t// in\n    tag_25:\n    tag_24:\n      swap1\n      0x00\n      mstore\n      keccak256(0x00, 0x20)\n      add\n      sload\n        /* \"contracts/loops.sol\":1492:1520  numbersList[i] == userNumber */\n      sub\n        /* \"contracts/loops.sol\":1488:1574  if (numbersList[i] == userNumber) {... */\n      tag_28\n      jumpi\n        /* \"contracts/loops.sol\":1555:1559  true */\n      0x01\n        /* \"contracts/loops.sol\":1540:1559  numberExists = true */\n      swap2\n      pop\n        /* \"contracts/loops.sol\":1488:1574  if (numbersList[i] == userNumber) {... */\n    tag_28:\n        /* \"contracts/loops.sol\":1470:1473  i++ */\n      dup1\n      dup1\n      tag_29\n      swap1\n      tag_30\n      jump\t// in\n    tag_29:\n      swap2\n      pop\n      pop\n        /* \"contracts/loops.sol\":1429:1584  for (uint i = 0; i < numbersList.length; i++){... */\n      jump(tag_21)\n    tag_22:\n      pop\n        /* \"contracts/loops.sol\":1600:1612  numberExists */\n      dup1\n        /* \"contracts/loops.sol\":1593:1612  return numberExists */\n      swap2\n      pop\n      pop\n        /* \"contracts/loops.sol\":1297:1619  function numbersListLoop(uint userNumber) public view returns (bool) {... */\n      swap2\n      swap1\n      pop\n      jump\t// out\n        /* \"contracts/loops.sol\":1170:1248  uint [] public longList = [1,2,3,4,5,6,7,8,9,10,11,12,13,14,15,16,17,18,19,20] */\n    tag_14:\n      0x00\n      dup2\n      dup2\n      sload\n      dup2\n      lt\n      tag_31\n      jumpi\n      0x00\n      dup1\n      revert\n    tag_31:\n      swap1\n      0x00\n      mstore\n      keccak256(0x00, 0x20)\n      add\n      0x00\n      swap2\n      pop\n      swap1\n      pop\n      sload\n      dup2\n      jump\t// out\n        /* \"contracts/loops.sol\":1625:1877  function evenNumbersLoop () public view returns (uint) {... */\n    tag_18:\n        /* \"contracts/loops.sol\":1674:1678  uint */\n      0x00\n        /* \"contracts/loops.sol\":1690:1700  uint count */\n      dup1\n        /* \"contracts/loops.sol\":1703:1704  0 */\n      0x00\n        /* \"contracts/loops.sol\":1690:1704  uint count = 0 */\n      swap1\n      pop\n        /* \"contracts/loops.sol\":1719:1725  uint i */\n      0x00\n        /* \"contracts/loops.sol\":1714:1849  for (uint i = 0; i < longList.length; i ++) {... */\n    tag_34:\n        /* \"contracts/loops.sol\":1735:1743  longList */\n      0x00\n        /* \"contracts/loops.sol\":1735:1750  longList.length */\n      dup1\n      sload\n      swap1\n      pop\n        /* \"contracts/loops.sol\":1731:1732  i */\n      dup2\n        /* \"contracts/loops.sol\":1731:1750  i < longList.length */\n      lt\n        /* \"contracts/loops.sol\":1714:1849  for (uint i = 0; i < longList.length; i ++) {... */\n      iszero\n      tag_35\n      jumpi\n        /* \"contracts/loops.sol\":1795:1796  0 */\n      0x00\n        /* \"contracts/loops.sol\":1790:1791  2 */\n      0x02\n        /* \"contracts/loops.sol\":1776:1784  longList */\n      0x00\n        /* \"contracts/loops.sol\":1785:1786  i */\n      dup4\n        /* \"contracts/loops.sol\":1776:1787  longList[i] */\n      dup2\n      sload\n      dup2\n      lt\n      tag_37\n      jumpi\n      tag_38\n      tag_26\n      jump\t// in\n    tag_38:\n    tag_37:\n      swap1\n      0x00\n      mstore\n      keccak256(0x00, 0x20)\n      add\n      sload\n        /* \"contracts/loops.sol\":1776:1791  longList[i] % 2 */\n      tag_40\n      swap2\n      swap1\n      tag_41\n      jump\t// in\n    tag_40:\n        /* \"contracts/loops.sol\":1776:1796  longList[i] % 2 == 0 */\n      sub\n        /* \"contracts/loops.sol\":1772:1839  if (longList[i] % 2 == 0) {... */\n      tag_42\n      jumpi\n        /* \"contracts/loops.sol\":1816:1824  count ++ */\n      dup2\n      dup1\n      tag_43\n      swap1\n      tag_30\n      jump\t// in\n    tag_43:\n      swap3\n      pop\n      pop\n        /* \"contracts/loops.sol\":1772:1839  if (longList[i] % 2 == 0) {... */\n    tag_42:\n        /* \"contracts/loops.sol\":1752:1756  i ++ */\n      dup1\n      dup1\n      tag_44\n      swap1\n      tag_30\n      jump\t// in\n    tag_44:\n      swap2\n      pop\n      pop\n        /* \"contracts/loops.sol\":1714:1849  for (uint i = 0; i < longList.length; i ++) {... */\n      jump(tag_34)\n    tag_35:\n      pop\n        /* \"contracts/loops.sol\":1865:1870  count */\n      dup1\n        /* \"contracts/loops.sol\":1858:1870  return count */\n      swap2\n      pop\n      pop\n        /* \"contracts/loops.sol\":1625:1877  function evenNumbersLoop () public view returns (uint) {... */\n      swap1\n      jump\t// out\n        /* \"#utility.yul\":88:205   */\n    tag_46:\n        /* \"#utility.yul\":197:198   */\n      0x00\n        /* \"#utility.yul\":194:195   */\n      dup1\n        /* \"#utility.yul\":187:199   */\n      revert\n        /* \"#utility.yul\":334:411   */\n    tag_48:\n        /* \"#utility.yul\":371:378   */\n      0x00\n        /* \"#utility.yul\":400:405   */\n      dup2\n        /* \"#utility.yul\":389:405   */\n      swap1\n      pop\n        /* \"#utility.yul\":334:411   */\n      swap2\n      swap1\n      pop\n      jump\t// out\n        /* \"#utility.yul\":417:539   */\n    tag_49:\n        /* \"#utility.yul\":490:514   */\n      tag_62\n        /* \"#utility.yul\":508:513   */\n      dup2\n        /* \"#utility.yul\":490:514   */\n      tag_48\n      jump\t// in\n    tag_62:\n        /* \"#utility.yul\":483:488   */\n      dup2\n        /* \"#utility.yul\":480:515   */\n      eq\n        /* \"#utility.yul\":470:533   */\n      tag_63\n      jumpi\n        /* \"#utility.yul\":529:530   */\n      0x00\n        /* \"#utility.yul\":526:527   */\n      dup1\n        /* \"#utility.yul\":519:531   */\n      revert\n        /* \"#utility.yul\":470:533   */\n    tag_63:\n        /* \"#utility.yul\":417:539   */\n      pop\n      jump\t// out\n        /* \"#utility.yul\":545:684   */\n    tag_50:\n        /* \"#utility.yul\":591:596   */\n      0x00\n        /* \"#utility.yul\":629:635   */\n      dup2\n        /* \"#utility.yul\":616:636   */\n      calldataload\n        /* \"#utility.yul\":607:636   */\n      swap1\n      pop\n        /* \"#utility.yul\":645:678   */\n      tag_65\n        /* \"#utility.yul\":672:677   */\n      dup2\n        /* \"#utility.yul\":645:678   */\n      tag_49\n      jump\t// in\n    tag_65:\n        /* \"#utility.yul\":545:684   */\n      swap3\n      swap2\n      pop\n      pop\n      jump\t// out\n        /* \"#utility.yul\":690:1019   */\n    tag_8:\n        /* \"#utility.yul\":749:755   */\n      0x00\n        /* \"#utility.yul\":798:800   */\n      0x20\n        /* \"#utility.yul\":786:795   */\n      dup3\n        /* \"#utility.yul\":777:784   */\n      dup5\n        /* \"#utility.yul\":773:796   */\n      sub\n        /* \"#utility.yul\":769:801   */\n      slt\n        /* \"#utility.yul\":766:885   */\n      iszero\n      tag_67\n      jumpi\n        /* \"#utility.yul\":804:883   */\n      tag_68\n      tag_46\n      jump\t// in\n    tag_68:\n        /* \"#utility.yul\":766:885   */\n    tag_67:\n        /* \"#utility.yul\":924:925   */\n      0x00\n        /* \"#utility.yul\":949:1002   */\n      tag_69\n        /* \"#utility.yul\":994:1001   */\n      dup5\n        /* \"#utility.yul\":985:991   */\n      dup3\n        /* \"#utility.yul\":974:983   */\n      dup6\n        /* \"#utility.yul\":970:992   */\n      add\n        /* \"#utility.yul\":949:1002   */\n      tag_50\n      jump\t// in\n    tag_69:\n        /* \"#utility.yul\":939:1002   */\n      swap2\n      pop\n        /* \"#utility.yul\":895:1012   */\n      pop\n        /* \"#utility.yul\":690:1019   */\n      swap3\n      swap2\n      pop\n      pop\n      jump\t// out\n        /* \"#utility.yul\":1025:1115   */\n    tag_51:\n        /* \"#utility.yul\":1059:1066   */\n      0x00\n        /* \"#utility.yul\":1102:1107   */\n      dup2\n        /* \"#utility.yul\":1095:1108   */\n      iszero\n        /* \"#utility.yul\":1088:1109   */\n      iszero\n        /* \"#utility.yul\":1077:1109   */\n      swap1\n      pop\n        /* \"#utility.yul\":1025:1115   */\n      swap2\n      swap1\n      pop\n      jump\t// out\n        /* \"#utility.yul\":1121:1230   */\n    tag_52:\n        /* \"#utility.yul\":1202:1223   */\n      tag_72\n        /* \"#utility.yul\":1217:1222   */\n      dup2\n        /* \"#utility.yul\":1202:1223   */\n      tag_51\n      jump\t// in\n    tag_72:\n        /* \"#utility.yul\":1197:1200   */\n      dup3\n        /* \"#utility.yul\":1190:1224   */\n      mstore\n        /* \"#utility.yul\":1121:1230   */\n      pop\n      pop\n      jump\t// out\n        /* \"#utility.yul\":1236:1446   */\n    tag_11:\n        /* \"#utility.yul\":1323:1327   */\n      0x00\n        /* \"#utility.yul\":1361:1363   */\n      0x20\n        /* \"#utility.yul\":1350:1359   */\n      dup3\n        /* \"#utility.yul\":1346:1364   */\n      add\n        /* \"#utility.yul\":1338:1364   */\n      swap1\n      pop\n        /* \"#utility.yul\":1374:1439   */\n      tag_74\n        /* \"#utility.yul\":1436:1437   */\n      0x00\n        /* \"#utility.yul\":1425:1434   */\n      dup4\n        /* \"#utility.yul\":1421:1438   */\n      add\n        /* \"#utility.yul\":1412:1418   */\n      dup5\n        /* \"#utility.yul\":1374:1439   */\n      tag_52\n      jump\t// in\n    tag_74:\n        /* \"#utility.yul\":1236:1446   */\n      swap3\n      swap2\n      pop\n      pop\n      jump\t// out\n        /* \"#utility.yul\":1452:1570   */\n    tag_53:\n        /* \"#utility.yul\":1539:1563   */\n      tag_76\n        /* \"#utility.yul\":1557:1562   */\n      dup2\n        /* \"#utility.yul\":1539:1563   */\n      tag_48\n      jump\t// in\n    tag_76:\n        /* \"#utility.yul\":1534:1537   */\n      dup3\n        /* \"#utility.yul\":1527:1564   */\n      mstore\n        /* \"#utility.yul\":1452:1570   */\n      pop\n      pop\n      jump\t// out\n        /* \"#utility.yul\":1576:1798   */\n    tag_16:\n        /* \"#utility.yul\":1669:1673   */\n      0x00\n        /* \"#utility.yul\":1707:1709   */\n      0x20\n        /* \"#utility.yul\":1696:1705   */\n      dup3\n        /* \"#utility.yul\":1692:1710   */\n      add\n        /* \"#utility.yul\":1684:1710   */\n      swap1\n      pop\n        /* \"#utility.yul\":1720:1791   */\n      tag_78\n        /* \"#utility.yul\":1788:1789   */\n      0x00\n        /* \"#utility.yul\":1777:1786   */\n      dup4\n        /* \"#utility.yul\":1773:1790   */\n      add\n        /* \"#utility.yul\":1764:1770   */\n      dup5\n        /* \"#utility.yul\":1720:1791   */\n      tag_53\n      jump\t// in\n    tag_78:\n        /* \"#utility.yul\":1576:1798   */\n      swap3\n      swap2\n      pop\n      pop\n      jump\t// out\n        /* \"#utility.yul\":1804:1984   */\n    tag_26:\n        /* \"#utility.yul\":1852:1929   */\n      0x4e487b7100000000000000000000000000000000000000000000000000000000\n        /* \"#utility.yul\":1849:1850   */\n      0x00\n        /* \"#utility.yul\":1842:1930   */\n      mstore\n        /* \"#utility.yul\":1949:1953   */\n      0x32\n        /* \"#utility.yul\":1946:1947   */\n      0x04\n        /* \"#utility.yul\":1939:1954   */\n      mstore\n        /* \"#utility.yul\":1973:1977   */\n      0x24\n        /* \"#utility.yul\":1970:1971   */\n      0x00\n        /* \"#utility.yul\":1963:1978   */\n      revert\n        /* \"#utility.yul\":1990:2170   */\n    tag_54:\n        /* \"#utility.yul\":2038:2115   */\n      0x4e487b7100000000000000000000000000000000000000000000000000000000\n        /* \"#utility.yul\":2035:2036   */\n      0x00\n        /* \"#utility.yul\":2028:2116   */\n      mstore\n        /* \"#utility.yul\":2135:2139   */\n      0x11\n        /* \"#utility.yul\":2132:2133   */\n      0x04\n        /* \"#utility.yul\":2125:2140   */\n      mstore\n        /* \"#utility.yul\":2159:2163   */\n      0x24\n        /* \"#utility.yul\":2156:2157   */\n      0x00\n        /* \"#utility.yul\":2149:2164   */\n      revert\n        /* \"#utility.yul\":2176:2409   */\n    tag_30:\n        /* \"#utility.yul\":2215:2218   */\n      0x00\n        /* \"#utility.yul\":2238:2262   */\n      tag_82\n        /* \"#utility.yul\":2256:2261   */\n      dup3\n        /* \"#utility.yul\":2238:2262   */\n      tag_48\n      jump\t// in\n    tag_82:\n        /* \"#utility.yul\":2229:2262   */\n      swap2\n      pop\n        /* \"#utility.yul\":2284:2350   */\n      0xffffffffffffffffffffffffffffffffffffffffffffffffffffffffffffffff\n        /* \"#utility.yul\":2277:2282   */\n      dup3\n        /* \"#utility.yul\":2274:2351   */\n      sub\n        /* \"#utility.yul\":2271:2374   */\n      tag_83\n      jumpi\n        /* \"#utility.yul\":2354:2372   */\n      tag_84\n      tag_54\n      jump\t// in\n    tag_84:\n        /* \"#utility.yul\":2271:2374   */\n    tag_83:\n        /* \"#utility.yul\":2401:2402   */\n      0x01\n        /* \"#utility.yul\":2394:2399   */\n      dup3\n        /* \"#utility.yul\":2390:2403   */\n      add\n        /* \"#utility.yul\":2383:2403   */\n      swap1\n      pop\n        /* \"#utility.yul\":2176:2409   */\n      swap2\n      swap1\n      pop\n      jump\t// out\n        /* \"#utility.yul\":2415:2595   */\n    tag_55:\n        /* \"#utility.yul\":2463:2540   */\n      0x4e487b7100000000000000000000000000000000000000000000000000000000\n        /* \"#utility.yul\":2460:2461   */\n      0x00\n        /* \"#utility.yul\":2453:2541   */\n      mstore\n        /* \"#utility.yul\":2560:2564   */\n      0x12\n        /* \"#utility.yul\":2557:2558   */\n      0x04\n        /* \"#utility.yul\":2550:2565   */\n      mstore\n        /* \"#utility.yul\":2584:2588   */\n      0x24\n        /* \"#utility.yul\":2581:2582   */\n      0x00\n        /* \"#utility.yul\":2574:2589   */\n      revert\n        /* \"#utility.yul\":2601:2777   */\n    tag_41:\n        /* \"#utility.yul\":2633:2634   */\n      0x00\n        /* \"#utility.yul\":2650:2670   */\n      tag_87\n        /* \"#utility.yul\":2668:2669   */\n      dup3\n        /* \"#utility.yul\":2650:2670   */\n      tag_48\n      jump\t// in\n    tag_87:\n        /* \"#utility.yul\":2645:2670   */\n      swap2\n      pop\n        /* \"#utility.yul\":2684:2704   */\n      tag_88\n        /* \"#utility.yul\":2702:2703   */\n      dup4\n        /* \"#utility.yul\":2684:2704   */\n      tag_48\n      jump\t// in\n    tag_88:\n        /* \"#utility.yul\":2679:2704   */\n      swap3\n      pop\n        /* \"#utility.yul\":2723:2724   */\n      dup3\n        /* \"#utility.yul\":2713:2748   */\n      tag_89\n      jumpi\n        /* \"#utility.yul\":2728:2746   */\n      tag_90\n      tag_55\n      jump\t// in\n    tag_90:\n        /* \"#utility.yul\":2713:2748   */\n    tag_89:\n        /* \"#utility.yul\":2769:2770   */\n      dup3\n        /* \"#utility.yul\":2766:2767   */\n      dup3\n        /* \"#utility.yul\":2762:2771   */\n      mod\n        /* \"#utility.yul\":2757:2771   */\n      swap1\n      pop\n        /* \"#utility.yul\":2601:2777   */\n      swap3\n      swap2\n      pop\n      pop\n      jump\t// out\n\n    auxdata: 0xa264697066735822122066d0a7b47585c88e7a301f401f2b757c65c7ed84c9fb3b8e39e56751e47f2a5d64736f6c63430008120033\n}\n",
				"bytecode": {
					"linkReferences": {},
					"object": "6080604052604051806102800160405280600160ff168152602001600260ff168152602001600360ff168152602001600460ff168152602001600560ff168152602001600660ff168152602001600760ff168152602001600860ff168152602001600960ff168152602001600a60ff168152602001600b60ff168152602001600c60ff168152602001600d60ff168152602001600e60ff168152602001600f60ff168152602001601060ff168152602001601160ff168152602001601260ff168152602001601360ff168152602001601460ff1681525060009060146100e692919061013b565b506040518060800160405280600160ff168152602001600460ff168152602001602260ff168152602001603860ff16815250600190600461012892919061018d565b5034801561013557600080fd5b506101fc565b82805482825590600052602060002090810192821561017c579160200282015b8281111561017b578251829060ff1690559160200191906001019061015b565b5b50905061018991906101df565b5090565b8280548282559060005260206000209081019282156101ce579160200282015b828111156101cd578251829060ff169055916020019190600101906101ad565b5b5090506101db91906101df565b5090565b5b808211156101f85760008160009055506001016101e0565b5090565b6103bd8061020b6000396000f3fe608060405234801561001057600080fd5b50600436106100415760003560e01c80635318425e14610046578063e472fe4c14610076578063ed25cf75146100a6575b600080fd5b610060600480360381019061005b91906101f4565b6100c4565b60405161006d919061023c565b60405180910390f35b610090600480360381019061008b91906101f4565b610122565b60405161009d9190610266565b60405180910390f35b6100ae610146565b6040516100bb9190610266565b60405180910390f35b6000806000905060005b6001805490508110156101185783600182815481106100f0576100ef610281565b5b90600052602060002001540361010557600191505b8080610110906102df565b9150506100ce565b5080915050919050565b6000818154811061013257600080fd5b906000526020600020016000915090505481565b6000806000905060005b6000805490508110156101b157600060026000838154811061017557610174610281565b5b906000526020600020015461018a9190610356565b0361019e57818061019a906102df565b9250505b80806101a9906102df565b915050610150565b508091505090565b600080fd5b6000819050919050565b6101d1816101be565b81146101dc57600080fd5b50565b6000813590506101ee816101c8565b92915050565b60006020828403121561020a576102096101b9565b5b6000610218848285016101df565b91505092915050565b60008115159050919050565b61023681610221565b82525050565b6000602082019050610251600083018461022d565b92915050565b610260816101be565b82525050565b600060208201905061027b6000830184610257565b92915050565b7f4e487b7100000000000000000000000000000000000000000000000000000000600052603260045260246000fd5b7f4e487b7100000000000000000000000000000000000000000000000000000000600052601160045260246000fd5b60006102ea826101be565b91507fffffffffffffffffffffffffffffffffffffffffffffffffffffffffffffffff820361031c5761031b6102b0565b5b600182019050919050565b7f4e487b7100000000000000000000000000000000000000000000000000000000600052601260045260246000fd5b6000610361826101be565b915061036c836101be565b92508261037c5761037b610327565b5b82820690509291505056fea264697066735822122066d0a7b47585c88e7a301f401f2b757c65c7ed84c9fb3b8e39e56751e47f2a5d64736f6c63430008120033",
					"opcodes": "PUSH1 0x80 PUSH1 0x40 MSTORE PUSH1 0x40 MLOAD DUP1 PUSH2 0x280 ADD PUSH1 0x40 MSTORE DUP1 PUSH1 0x1 PUSH1 0xFF AND DUP2 MSTORE PUSH1 0x20 ADD PUSH1 0x2 PUSH1 0xFF AND DUP2 MSTORE PUSH1 0x20 ADD PUSH1 0x3 PUSH1 0xFF AND DUP2 MSTORE PUSH1 0x20 ADD PUSH1 0x4 PUSH1 0xFF AND DUP2 MSTORE PUSH1 0x20 ADD PUSH1 0x5 PUSH1 0xFF AND DUP2 MSTORE PUSH1 0x20 ADD PUSH1 0x6 PUSH1 0xFF AND DUP2 MSTORE PUSH1 0x20 ADD PUSH1 0x7 PUSH1 0xFF AND DUP2 MSTORE PUSH1 0x20 ADD PUSH1 0x8 PUSH1 0xFF AND DUP2 MSTORE PUSH1 0x20 ADD PUSH1 0x9 PUSH1 0xFF AND DUP2 MSTORE PUSH1 0x20 ADD PUSH1 0xA PUSH1 0xFF AND DUP2 MSTORE PUSH1 0x20 ADD PUSH1 0xB PUSH1 0xFF AND DUP2 MSTORE PUSH1 0x20 ADD PUSH1 0xC PUSH1 0xFF AND DUP2 MSTORE PUSH1 0x20 ADD PUSH1 0xD PUSH1 0xFF AND DUP2 MSTORE PUSH1 0x20 ADD PUSH1 0xE PUSH1 0xFF AND DUP2 MSTORE PUSH1 0x20 ADD PUSH1 0xF PUSH1 0xFF AND DUP2 MSTORE PUSH1 0x20 ADD PUSH1 0x10 PUSH1 0xFF AND DUP2 MSTORE PUSH1 0x20 ADD PUSH1 0x11 PUSH1 0xFF AND DUP2 MSTORE PUSH1 0x20 ADD PUSH1 0x12 PUSH1 0xFF AND DUP2 MSTORE PUSH1 0x20 ADD PUSH1 0x13 PUSH1 0xFF AND DUP2 MSTORE PUSH1 0x20 ADD PUSH1 0x14 PUSH1 0xFF AND DUP2 MSTORE POP PUSH1 0x0 SWAP1 PUSH1 0x14 PUSH2 0xE6 SWAP3 SWAP2 SWAP1 PUSH2 0x13B JUMP JUMPDEST POP PUSH1 0x40 MLOAD DUP1 PUSH1 0x80 ADD PUSH1 0x40 MSTORE DUP1 PUSH1 0x1 PUSH1 0xFF AND DUP2 MSTORE PUSH1 0x20 ADD PUSH1 0x4 PUSH1 0xFF AND DUP2 MSTORE PUSH1 0x20 ADD PUSH1 0x22 PUSH1 0xFF AND DUP2 MSTORE PUSH1 0x20 ADD PUSH1 0x38 PUSH1 0xFF AND DUP2 MSTORE POP PUSH1 0x1 SWAP1 PUSH1 0x4 PUSH2 0x128 SWAP3 SWAP2 SWAP1 PUSH2 0x18D JUMP JUMPDEST POP CALLVALUE DUP1 ISZERO PUSH2 0x135 JUMPI PUSH1 0x0 DUP1 REVERT JUMPDEST POP PUSH2 0x1FC JUMP JUMPDEST DUP3 DUP1 SLOAD DUP3 DUP3 SSTORE SWAP1 PUSH1 0x0 MSTORE PUSH1 0x20 PUSH1 0x0 KECCAK256 SWAP1 DUP2 ADD SWAP3 DUP3 ISZERO PUSH2 0x17C JUMPI SWAP2 PUSH1 0x20 MUL DUP3 ADD JUMPDEST DUP3 DUP2 GT ISZERO PUSH2 0x17B JUMPI DUP3 MLOAD DUP3 SWAP1 PUSH1 0xFF AND SWAP1 SSTORE SWAP2 PUSH1 0x20 ADD SWAP2 SWAP1 PUSH1 0x1 ADD SWAP1 PUSH2 0x15B JUMP JUMPDEST JUMPDEST POP SWAP1 POP PUSH2 0x189 SWAP2 SWAP1 PUSH2 0x1DF JUMP JUMPDEST POP SWAP1 JUMP JUMPDEST DUP3 DUP1 SLOAD DUP3 DUP3 SSTORE SWAP1 PUSH1 0x0 MSTORE PUSH1 0x20 PUSH1 0x0 KECCAK256 SWAP1 DUP2 ADD SWAP3 DUP3 ISZERO PUSH2 0x1CE JUMPI SWAP2 PUSH1 0x20 MUL DUP3 ADD JUMPDEST DUP3 DUP2 GT ISZERO PUSH2 0x1CD JUMPI DUP3 MLOAD DUP3 SWAP1 PUSH1 0xFF AND SWAP1 SSTORE SWAP2 PUSH1 0x20 ADD SWAP2 SWAP1 PUSH1 0x1 ADD SWAP1 PUSH2 0x1AD JUMP JUMPDEST JUMPDEST POP SWAP1 POP PUSH2 0x1DB SWAP2 SWAP1 PUSH2 0x1DF JUMP JUMPDEST POP SWAP1 JUMP JUMPDEST JUMPDEST DUP1 DUP3 GT ISZERO PUSH2 0x1F8 JUMPI PUSH1 0x0 DUP2 PUSH1 0x0 SWAP1 SSTORE POP PUSH1 0x1 ADD PUSH2 0x1E0 JUMP JUMPDEST POP SWAP1 JUMP JUMPDEST PUSH2 0x3BD DUP1 PUSH2 0x20B PUSH1 0x0 CODECOPY PUSH1 0x0 RETURN INVALID PUSH1 0x80 PUSH1 0x40 MSTORE CALLVALUE DUP1 ISZERO PUSH2 0x10 JUMPI PUSH1 0x0 DUP1 REVERT JUMPDEST POP PUSH1 0x4 CALLDATASIZE LT PUSH2 0x41 JUMPI PUSH1 0x0 CALLDATALOAD PUSH1 0xE0 SHR DUP1 PUSH4 0x5318425E EQ PUSH2 0x46 JUMPI DUP1 PUSH4 0xE472FE4C EQ PUSH2 0x76 JUMPI DUP1 PUSH4 0xED25CF75 EQ PUSH2 0xA6 JUMPI JUMPDEST PUSH1 0x0 DUP1 REVERT JUMPDEST PUSH2 0x60 PUSH1 0x4 DUP1 CALLDATASIZE SUB DUP2 ADD SWAP1 PUSH2 0x5B SWAP2 SWAP1 PUSH2 0x1F4 JUMP JUMPDEST PUSH2 0xC4 JUMP JUMPDEST PUSH1 0x40 MLOAD PUSH2 0x6D SWAP2 SWAP1 PUSH2 0x23C JUMP JUMPDEST PUSH1 0x40 MLOAD DUP1 SWAP2 SUB SWAP1 RETURN JUMPDEST PUSH2 0x90 PUSH1 0x4 DUP1 CALLDATASIZE SUB DUP2 ADD SWAP1 PUSH2 0x8B SWAP2 SWAP1 PUSH2 0x1F4 JUMP JUMPDEST PUSH2 0x122 JUMP JUMPDEST PUSH1 0x40 MLOAD PUSH2 0x9D SWAP2 SWAP1 PUSH2 0x266 JUMP JUMPDEST PUSH1 0x40 MLOAD DUP1 SWAP2 SUB SWAP1 RETURN JUMPDEST PUSH2 0xAE PUSH2 0x146 JUMP JUMPDEST PUSH1 0x40 MLOAD PUSH2 0xBB SWAP2 SWAP1 PUSH2 0x266 JUMP JUMPDEST PUSH1 0x40 MLOAD DUP1 SWAP2 SUB SWAP1 RETURN JUMPDEST PUSH1 0x0 DUP1 PUSH1 0x0 SWAP1 POP PUSH1 0x0 JUMPDEST PUSH1 0x1 DUP1 SLOAD SWAP1 POP DUP2 LT ISZERO PUSH2 0x118 JUMPI DUP4 PUSH1 0x1 DUP3 DUP2 SLOAD DUP2 LT PUSH2 0xF0 JUMPI PUSH2 0xEF PUSH2 0x281 JUMP JUMPDEST JUMPDEST SWAP1 PUSH1 0x0 MSTORE PUSH1 0x20 PUSH1 0x0 KECCAK256 ADD SLOAD SUB PUSH2 0x105 JUMPI PUSH1 0x1 SWAP2 POP JUMPDEST DUP1 DUP1 PUSH2 0x110 SWAP1 PUSH2 0x2DF JUMP JUMPDEST SWAP2 POP POP PUSH2 0xCE JUMP JUMPDEST POP DUP1 SWAP2 POP POP SWAP2 SWAP1 POP JUMP JUMPDEST PUSH1 0x0 DUP2 DUP2 SLOAD DUP2 LT PUSH2 0x132 JUMPI PUSH1 0x0 DUP1 REVERT JUMPDEST SWAP1 PUSH1 0x0 MSTORE PUSH1 0x20 PUSH1 0x0 KECCAK256 ADD PUSH1 0x0 SWAP2 POP SWAP1 POP SLOAD DUP2 JUMP JUMPDEST PUSH1 0x0 DUP1 PUSH1 0x0 SWAP1 POP PUSH1 0x0 JUMPDEST PUSH1 0x0 DUP1 SLOAD SWAP1 POP DUP2 LT ISZERO PUSH2 0x1B1 JUMPI PUSH1 0x0 PUSH1 0x2 PUSH1 0x0 DUP4 DUP2 SLOAD DUP2 LT PUSH2 0x175 JUMPI PUSH2 0x174 PUSH2 0x281 JUMP JUMPDEST JUMPDEST SWAP1 PUSH1 0x0 MSTORE PUSH1 0x20 PUSH1 0x0 KECCAK256 ADD SLOAD PUSH2 0x18A SWAP2 SWAP1 PUSH2 0x356 JUMP JUMPDEST SUB PUSH2 0x19E JUMPI DUP2 DUP1 PUSH2 0x19A SWAP1 PUSH2 0x2DF JUMP JUMPDEST SWAP3 POP POP JUMPDEST DUP1 DUP1 PUSH2 0x1A9 SWAP1 PUSH2 0x2DF JUMP JUMPDEST SWAP2 POP POP PUSH2 0x150 JUMP JUMPDEST POP DUP1 SWAP2 POP POP SWAP1 JUMP JUMPDEST PUSH1 0x0 DUP1 REVERT JUMPDEST PUSH1 0x0 DUP2 SWAP1 POP SWAP2 SWAP1 POP JUMP JUMPDEST PUSH2 0x1D1 DUP2 PUSH2 0x1BE JUMP JUMPDEST DUP2 EQ PUSH2 0x1DC JUMPI PUSH1 0x0 DUP1 REVERT JUMPDEST POP JUMP JUMPDEST PUSH1 0x0 DUP2 CALLDATALOAD SWAP1 POP PUSH2 0x1EE DUP2 PUSH2 0x1C8 JUMP JUMPDEST SWAP3 SWAP2 POP POP JUMP JUMPDEST PUSH1 0x0 PUSH1 0x20 DUP3 DUP5 SUB SLT ISZERO PUSH2 0x20A JUMPI PUSH2 0x209 PUSH2 0x1B9 JUMP JUMPDEST JUMPDEST PUSH1 0x0 PUSH2 0x218 DUP5 DUP3 DUP6 ADD PUSH2 0x1DF JUMP JUMPDEST SWAP2 POP POP SWAP3 SWAP2 POP POP JUMP JUMPDEST PUSH1 0x0 DUP2 ISZERO ISZERO SWAP1 POP SWAP2 SWAP1 POP JUMP JUMPDEST PUSH2 0x236 DUP2 PUSH2 0x221 JUMP JUMPDEST DUP3 MSTORE POP POP JUMP JUMPDEST PUSH1 0x0 PUSH1 0x20 DUP3 ADD SWAP1 POP PUSH2 0x251 PUSH1 0x0 DUP4 ADD DUP5 PUSH2 0x22D JUMP JUMPDEST SWAP3 SWAP2 POP POP JUMP JUMPDEST PUSH2 0x260 DUP2 PUSH2 0x1BE JUMP JUMPDEST DUP3 MSTORE POP POP JUMP JUMPDEST PUSH1 0x0 PUSH1 0x20 DUP3 ADD SWAP1 POP PUSH2 0x27B PUSH1 0x0 DUP4 ADD DUP5 PUSH2 0x257 JUMP JUMPDEST SWAP3 SWAP2 POP POP JUMP JUMPDEST PUSH32 0x4E487B7100000000000000000000000000000000000000000000000000000000 PUSH1 0x0 MSTORE PUSH1 0x32 PUSH1 0x4 MSTORE PUSH1 0x24 PUSH1 0x0 REVERT JUMPDEST PUSH32 0x4E487B7100000000000000000000000000000000000000000000000000000000 PUSH1 0x0 MSTORE PUSH1 0x11 PUSH1 0x4 MSTORE PUSH1 0x24 PUSH1 0x0 REVERT JUMPDEST PUSH1 0x0 PUSH2 0x2EA DUP3 PUSH2 0x1BE JUMP JUMPDEST SWAP2 POP PUSH32 0xFFFFFFFFFFFFFFFFFFFFFFFFFFFFFFFFFFFFFFFFFFFFFFFFFFFFFFFFFFFFFFFF DUP3 SUB PUSH2 0x31C JUMPI PUSH2 0x31B PUSH2 0x2B0 JUMP JUMPDEST JUMPDEST PUSH1 0x1 DUP3 ADD SWAP1 POP SWAP2 SWAP1 POP JUMP JUMPDEST PUSH32 0x4E487B7100000000000000000000000000000000000000000000000000000000 PUSH1 0x0 MSTORE PUSH1 0x12 PUSH1 0x4 MSTORE PUSH1 0x24 PUSH1 0x0 REVERT JUMPDEST PUSH1 0x0 PUSH2 0x361 DUP3 PUSH2 0x1BE JUMP JUMPDEST SWAP2 POP PUSH2 0x36C DUP4 PUSH2 0x1BE JUMP JUMPDEST SWAP3 POP DUP3 PUSH2 0x37C JUMPI PUSH2 0x37B PUSH2 0x327 JUMP JUMPDEST JUMPDEST DUP3 DUP3 MOD SWAP1 POP SWAP3 SWAP2 POP POP JUMP INVALID LOG2 PUSH5 0x6970667358 0x22 SLT KECCAK256 PUSH7 0xD0A7B47585C88E PUSH27 0x301F401F2B757C65C7ED84C9FB3B8E39E56751E47F2A5D64736F6C PUSH4 0x43000812 STOP CALLER "
				},
				"gasEstimates": {
					"creation": {
						"codeDepositCost": "191400",
						"executionCost": "infinite",
						"totalCost": "infinite"
					},
					"external": {
						"evenNumbersLoop()": "infinite",
						"longList(uint256)": "infinite",
						"numbersListLoop(uint256)": "infinite"
					}
				},
				"methodIdentifiers": {
					"evenNumbersLoop()": "ed25cf75",
					"longList(uint256)": "e472fe4c",
					"numbersListLoop(uint256)": "5318425e"
				}
			},
			"storageLayout": {
				"storage": [
					{
						"astId": 100,
						"contract": "contracts/loops.sol:myLoopingPracticeContract",
						"label": "longList",
						"offset": 0,
						"slot": "0",
						"type": "t_array(t_uint256)dyn_storage"
					},
					{
						"astId": 108,
						"contract": "contracts/loops.sol:myLoopingPracticeContract",
						"label": "numbersList",
						"offset": 0,
						"slot": "1",
						"type": "t_array(t_uint256)dyn_storage"
					}
				],
				"types": {
					"t_array(t_uint256)dyn_storage": {
						"base": "t_uint256",
						"encoding": "dynamic_array",
						"label": "uint256[]",
						"numberOfBytes": "32"
					},
					"t_uint256": {
						"encoding": "inplace",
						"label": "uint256",
						"numberOfBytes": "32"
					}
				}
			},
			"userdoc": {
				"kind": "user",
				"methods": {},
				"version": 1
			}
		}
	}
}