{
	"contracts/bankContract.sol": {
		"bank": {
			"abi": [
				{
					"inputs": [
						{
							"internalType": "int256",
							"name": "intitalValue",
							"type": "int256"
						}
					],
					"stateMutability": "nonpayable",
					"type": "constructor"
				},
				{
					"inputs": [
						{
							"internalType": "int256",
							"name": "amt",
							"type": "int256"
						}
					],
					"name": "deposit",
					"outputs": [],
					"stateMutability": "nonpayable",
					"type": "function"
				},
				{
					"inputs": [],
					"name": "getBalance",
					"outputs": [
						{
							"internalType": "int256",
							"name": "",
							"type": "int256"
						}
					],
					"stateMutability": "view",
					"type": "function"
				},
				{
					"inputs": [
						{
							"internalType": "int256",
							"name": "amt",
							"type": "int256"
						}
					],
					"name": "withdraw",
					"outputs": [],
					"stateMutability": "nonpayable",
					"type": "function"
				}
			],
			"devdoc": {
				"methods": {}
			},
			"evm": {
				"assembly": "    /* \"contracts/bankContract.sol\":259:606  contract bank... */\n  mstore(0x40, 0x80)\n    /* \"contracts/bankContract.sol\":292:372  constructor(int256 intitalValue ) public... */\n  callvalue\n    /* \"--CODEGEN--\":8:17   */\n  dup1\n    /* \"--CODEGEN--\":5:7   */\n  iszero\n  tag_1\n  jumpi\n    /* \"--CODEGEN--\":30:31   */\n  0x00\n    /* \"--CODEGEN--\":27:28   */\n  dup1\n    /* \"--CODEGEN--\":20:32   */\n  revert\n    /* \"--CODEGEN--\":5:7   */\ntag_1:\n    /* \"contracts/bankContract.sol\":292:372  constructor(int256 intitalValue ) public... */\n  pop\n  mload(0x40)\n  sub(codesize, bytecodeSize)\n  dup1\n  bytecodeSize\n  dup4\n  codecopy\n  dup2\n  dup2\n  add\n  0x40\n  mstore\n    /* \"--CODEGEN--\":13:15   */\n  0x20\n    /* \"--CODEGEN--\":8:11   */\n  dup2\n    /* \"--CODEGEN--\":5:16   */\n  lt\n    /* \"--CODEGEN--\":2:4   */\n  iszero\n  tag_2\n  jumpi\n    /* \"--CODEGEN--\":29:30   */\n  0x00\n    /* \"--CODEGEN--\":26:27   */\n  dup1\n    /* \"--CODEGEN--\":19:31   */\n  revert\n    /* \"--CODEGEN--\":2:4   */\ntag_2:\n    /* \"contracts/bankContract.sol\":292:372  constructor(int256 intitalValue ) public... */\n  dup2\n  add\n  swap1\n  dup1\n  dup1\n  mload\n  swap1\n  0x20\n  add\n  swap1\n  swap3\n  swap2\n  swap1\n  pop\n  pop\n  pop\n    /* \"contracts/bankContract.sol\":353:365  intitalValue */\n  dup1\n    /* \"contracts/bankContract.sol\":347:350  bal */\n  0x00\n    /* \"contracts/bankContract.sol\":347:365  bal = intitalValue */\n  dup2\n  swap1\n  sstore\n  pop\n    /* \"contracts/bankContract.sol\":292:372  constructor(int256 intitalValue ) public... */\n  pop\n    /* \"contracts/bankContract.sol\":259:606  contract bank... */\n  dataSize(sub_0)\n  dup1\n  dataOffset(sub_0)\n  0x00\n  codecopy\n  0x00\n  return\nstop\n\nsub_0: assembly {\n        /* \"contracts/bankContract.sol\":259:606  contract bank... */\n      mstore(0x40, 0x80)\n      callvalue\n        /* \"--CODEGEN--\":8:17   */\n      dup1\n        /* \"--CODEGEN--\":5:7   */\n      iszero\n      tag_1\n      jumpi\n        /* \"--CODEGEN--\":30:31   */\n      0x00\n        /* \"--CODEGEN--\":27:28   */\n      dup1\n        /* \"--CODEGEN--\":20:32   */\n      revert\n        /* \"--CODEGEN--\":5:7   */\n    tag_1:\n        /* \"contracts/bankContract.sol\":259:606  contract bank... */\n      pop\n      jumpi(tag_2, lt(calldatasize, 0x04))\n      shr(0xe0, calldataload(0x00))\n      dup1\n      0x12065fe0\n      eq\n      tag_3\n      jumpi\n      dup1\n      0x7e62eab8\n      eq\n      tag_4\n      jumpi\n      dup1\n      0xf04991f0\n      eq\n      tag_5\n      jumpi\n    tag_2:\n      0x00\n      dup1\n      revert\n        /* \"contracts/bankContract.sol\":377:455  function getBalance() public view returns(int)... */\n    tag_3:\n      tag_6\n      tag_7\n      jump\t// in\n    tag_6:\n      mload(0x40)\n      dup1\n      dup3\n      dup2\n      mstore\n      0x20\n      add\n      swap2\n      pop\n      pop\n      mload(0x40)\n      dup1\n      swap2\n      sub\n      swap1\n      return\n        /* \"contracts/bankContract.sol\":460:530  function withdraw(int amt) public... */\n    tag_4:\n      tag_8\n      0x04\n      dup1\n      calldatasize\n      sub\n        /* \"--CODEGEN--\":13:15   */\n      0x20\n        /* \"--CODEGEN--\":8:11   */\n      dup2\n        /* \"--CODEGEN--\":5:16   */\n      lt\n        /* \"--CODEGEN--\":2:4   */\n      iszero\n      tag_9\n      jumpi\n        /* \"--CODEGEN--\":29:30   */\n      0x00\n        /* \"--CODEGEN--\":26:27   */\n      dup1\n        /* \"--CODEGEN--\":19:31   */\n      revert\n        /* \"--CODEGEN--\":2:4   */\n    tag_9:\n        /* \"contracts/bankContract.sol\":460:530  function withdraw(int amt) public... */\n      dup2\n      add\n      swap1\n      dup1\n      dup1\n      calldataload\n      swap1\n      0x20\n      add\n      swap1\n      swap3\n      swap2\n      swap1\n      pop\n      pop\n      pop\n      tag_10\n      jump\t// in\n    tag_8:\n      stop\n        /* \"contracts/bankContract.sol\":535:604  function deposit(int amt) public... */\n    tag_5:\n      tag_11\n      0x04\n      dup1\n      calldatasize\n      sub\n        /* \"--CODEGEN--\":13:15   */\n      0x20\n        /* \"--CODEGEN--\":8:11   */\n      dup2\n        /* \"--CODEGEN--\":5:16   */\n      lt\n        /* \"--CODEGEN--\":2:4   */\n      iszero\n      tag_12\n      jumpi\n        /* \"--CODEGEN--\":29:30   */\n      0x00\n        /* \"--CODEGEN--\":26:27   */\n      dup1\n        /* \"--CODEGEN--\":19:31   */\n      revert\n        /* \"--CODEGEN--\":2:4   */\n    tag_12:\n        /* \"contracts/bankContract.sol\":535:604  function deposit(int amt) public... */\n      dup2\n      add\n      swap1\n      dup1\n      dup1\n      calldataload\n      swap1\n      0x20\n      add\n      swap1\n      swap3\n      swap2\n      swap1\n      pop\n      pop\n      pop\n      tag_13\n      jump\t// in\n    tag_11:\n      stop\n        /* \"contracts/bankContract.sol\":377:455  function getBalance() public view returns(int)... */\n    tag_7:\n        /* \"contracts/bankContract.sol\":419:422  int */\n      0x00\n        /* \"contracts/bankContract.sol\":445:448  bal */\n      dup1\n      sload\n        /* \"contracts/bankContract.sol\":438:448  return bal */\n      swap1\n      pop\n        /* \"contracts/bankContract.sol\":377:455  function getBalance() public view returns(int)... */\n      swap1\n      jump\t// out\n        /* \"contracts/bankContract.sol\":460:530  function withdraw(int amt) public... */\n    tag_10:\n        /* \"contracts/bankContract.sol\":520:523  amt */\n      dup1\n        /* \"contracts/bankContract.sol\":514:517  bal */\n      sload(0x00)\n        /* \"contracts/bankContract.sol\":514:523  bal - amt */\n      sub\n        /* \"contracts/bankContract.sol\":508:511  bal */\n      0x00\n        /* \"contracts/bankContract.sol\":508:523  bal = bal - amt */\n      dup2\n      swap1\n      sstore\n      pop\n        /* \"contracts/bankContract.sol\":460:530  function withdraw(int amt) public... */\n      pop\n      jump\t// out\n        /* \"contracts/bankContract.sol\":535:604  function deposit(int amt) public... */\n    tag_13:\n        /* \"contracts/bankContract.sol\":594:597  amt */\n      dup1\n        /* \"contracts/bankContract.sol\":588:591  bal */\n      sload(0x00)\n        /* \"contracts/bankContract.sol\":588:597  bal + amt */\n      add\n        /* \"contracts/bankContract.sol\":582:585  bal */\n      0x00\n        /* \"contracts/bankContract.sol\":582:597  bal = bal + amt */\n      dup2\n      swap1\n      sstore\n      pop\n        /* \"contracts/bankContract.sol\":535:604  function deposit(int amt) public... */\n      pop\n      jump\t// out\n\n    auxdata: 0xa26469706673582212206ff938a85d8cd63691a38421585c62ce6797b0faa41b0c37b75ff022fc5c56c764736f6c63430006000033\n}\n",
				"bytecode": {
					"linkReferences": {},
					"object": "608060405234801561001057600080fd5b506040516101693803806101698339818101604052602081101561003357600080fd5b8101908080519060200190929190505050806000819055505061010e8061005b6000396000f3fe6080604052348015600f57600080fd5b5060043610603c5760003560e01c806312065fe01460415780637e62eab814605d578063f04991f0146088575b600080fd5b604760b3565b6040518082815260200191505060405180910390f35b608660048036036020811015607157600080fd5b810190808035906020019092919050505060bc565b005b60b160048036036020811015609c57600080fd5b810190808035906020019092919050505060ca565b005b60008054905090565b806000540360008190555050565b80600054016000819055505056fea26469706673582212206ff938a85d8cd63691a38421585c62ce6797b0faa41b0c37b75ff022fc5c56c764736f6c63430006000033",
					"opcodes": "PUSH1 0x80 PUSH1 0x40 MSTORE CALLVALUE DUP1 ISZERO PUSH2 0x10 JUMPI PUSH1 0x0 DUP1 REVERT JUMPDEST POP PUSH1 0x40 MLOAD PUSH2 0x169 CODESIZE SUB DUP1 PUSH2 0x169 DUP4 CODECOPY DUP2 DUP2 ADD PUSH1 0x40 MSTORE PUSH1 0x20 DUP2 LT ISZERO PUSH2 0x33 JUMPI PUSH1 0x0 DUP1 REVERT JUMPDEST DUP2 ADD SWAP1 DUP1 DUP1 MLOAD SWAP1 PUSH1 0x20 ADD SWAP1 SWAP3 SWAP2 SWAP1 POP POP POP DUP1 PUSH1 0x0 DUP2 SWAP1 SSTORE POP POP PUSH2 0x10E DUP1 PUSH2 0x5B PUSH1 0x0 CODECOPY PUSH1 0x0 RETURN INVALID PUSH1 0x80 PUSH1 0x40 MSTORE CALLVALUE DUP1 ISZERO PUSH1 0xF JUMPI PUSH1 0x0 DUP1 REVERT JUMPDEST POP PUSH1 0x4 CALLDATASIZE LT PUSH1 0x3C JUMPI PUSH1 0x0 CALLDATALOAD PUSH1 0xE0 SHR DUP1 PUSH4 0x12065FE0 EQ PUSH1 0x41 JUMPI DUP1 PUSH4 0x7E62EAB8 EQ PUSH1 0x5D JUMPI DUP1 PUSH4 0xF04991F0 EQ PUSH1 0x88 JUMPI JUMPDEST PUSH1 0x0 DUP1 REVERT JUMPDEST PUSH1 0x47 PUSH1 0xB3 JUMP JUMPDEST PUSH1 0x40 MLOAD DUP1 DUP3 DUP2 MSTORE PUSH1 0x20 ADD SWAP2 POP POP PUSH1 0x40 MLOAD DUP1 SWAP2 SUB SWAP1 RETURN JUMPDEST PUSH1 0x86 PUSH1 0x4 DUP1 CALLDATASIZE SUB PUSH1 0x20 DUP2 LT ISZERO PUSH1 0x71 JUMPI PUSH1 0x0 DUP1 REVERT JUMPDEST DUP2 ADD SWAP1 DUP1 DUP1 CALLDATALOAD SWAP1 PUSH1 0x20 ADD SWAP1 SWAP3 SWAP2 SWAP1 POP POP POP PUSH1 0xBC JUMP JUMPDEST STOP JUMPDEST PUSH1 0xB1 PUSH1 0x4 DUP1 CALLDATASIZE SUB PUSH1 0x20 DUP2 LT ISZERO PUSH1 0x9C JUMPI PUSH1 0x0 DUP1 REVERT JUMPDEST DUP2 ADD SWAP1 DUP1 DUP1 CALLDATALOAD SWAP1 PUSH1 0x20 ADD SWAP1 SWAP3 SWAP2 SWAP1 POP POP POP PUSH1 0xCA JUMP JUMPDEST STOP JUMPDEST PUSH1 0x0 DUP1 SLOAD SWAP1 POP SWAP1 JUMP JUMPDEST DUP1 PUSH1 0x0 SLOAD SUB PUSH1 0x0 DUP2 SWAP1 SSTORE POP POP JUMP JUMPDEST DUP1 PUSH1 0x0 SLOAD ADD PUSH1 0x0 DUP2 SWAP1 SSTORE POP POP JUMP INVALID LOG2 PUSH5 0x6970667358 0x22 SLT KECCAK256 PUSH16 0xF938A85D8CD63691A38421585C62CE67 SWAP8 0xB0 STATICCALL LOG4 SHL 0xC CALLDATACOPY 0xB7 0x5F CREATE 0x22 0xFC 0x5C JUMP 0xC7 PUSH5 0x736F6C6343 STOP MOD STOP STOP CALLER "
				},
				"gasEstimates": {
					"creation": {
						"codeDepositCost": "54000",
						"executionCost": "infinite",
						"totalCost": "infinite"
					},
					"external": {
						"deposit(int256)": "21070",
						"getBalance()": "991",
						"withdraw(int256)": "21048"
					}
				},
				"methodIdentifiers": {
					"deposit(int256)": "f04991f0",
					"getBalance()": "12065fe0",
					"withdraw(int256)": "7e62eab8"
				}
			},
			"storageLayout": {
				"storage": [
					{
						"astId": 3,
						"contract": "contracts/bankContract.sol:bank",
						"label": "bal",
						"offset": 0,
						"slot": "0",
						"type": "t_int256"
					}
				],
				"types": {
					"t_int256": {
						"encoding": "inplace",
						"label": "int256",
						"numberOfBytes": "32"
					}
				}
			},
			"userdoc": {
				"methods": {}
			}
		}
	}
}