{
	"data": {
		"bytecode": {
			"linkReferences": {},
			"object": "608060405261012c600055600c600155602f60025534801561002057600080fd5b506101ab806100306000396000f3fe608060405234801561001057600080fd5b506004361061002b5760003560e01c80634bb278f314610030575b600080fd5b61003861004e565b60405161004591906100b5565b60405180910390f35b6000806017905060015460005411801561006b5750600254600154105b1561009457808161007c91906100ff565b90506001548161008c9190610141565b915050610099565b809150505b90565b6000819050919050565b6100af8161009c565b82525050565b60006020820190506100ca60008301846100a6565b92915050565b7f4e487b7100000000000000000000000000000000000000000000000000000000600052601160045260246000fd5b600061010a8261009c565b91506101158361009c565b92508282026101238161009c565b9150828204841483151761013a576101396100d0565b5b5092915050565b600061014c8261009c565b91506101578361009c565b925082820390508181111561016f5761016e6100d0565b5b9291505056fea264697066735822122078598a8c30b877e4ea63e8c664daacd8d66d95bde543a49b420cce35900f4d0564736f6c63430008120033",
			"opcodes": "PUSH1 0x80 PUSH1 0x40 MSTORE PUSH2 0x12C PUSH1 0x0 SSTORE PUSH1 0xC PUSH1 0x1 SSTORE PUSH1 0x2F PUSH1 0x2 SSTORE CALLVALUE DUP1 ISZERO PUSH2 0x20 JUMPI PUSH1 0x0 DUP1 REVERT JUMPDEST POP PUSH2 0x1AB DUP1 PUSH2 0x30 PUSH1 0x0 CODECOPY PUSH1 0x0 RETURN INVALID PUSH1 0x80 PUSH1 0x40 MSTORE CALLVALUE DUP1 ISZERO PUSH2 0x10 JUMPI PUSH1 0x0 DUP1 REVERT JUMPDEST POP PUSH1 0x4 CALLDATASIZE LT PUSH2 0x2B JUMPI PUSH1 0x0 CALLDATALOAD PUSH1 0xE0 SHR DUP1 PUSH4 0x4BB278F3 EQ PUSH2 0x30 JUMPI JUMPDEST PUSH1 0x0 DUP1 REVERT JUMPDEST PUSH2 0x38 PUSH2 0x4E JUMP JUMPDEST PUSH1 0x40 MLOAD PUSH2 0x45 SWAP2 SWAP1 PUSH2 0xB5 JUMP JUMPDEST PUSH1 0x40 MLOAD DUP1 SWAP2 SUB SWAP1 RETURN JUMPDEST PUSH1 0x0 DUP1 PUSH1 0x17 SWAP1 POP PUSH1 0x1 SLOAD PUSH1 0x0 SLOAD GT DUP1 ISZERO PUSH2 0x6B JUMPI POP PUSH1 0x2 SLOAD PUSH1 0x1 SLOAD LT JUMPDEST ISZERO PUSH2 0x94 JUMPI DUP1 DUP2 PUSH2 0x7C SWAP2 SWAP1 PUSH2 0xFF JUMP JUMPDEST SWAP1 POP PUSH1 0x1 SLOAD DUP2 PUSH2 0x8C SWAP2 SWAP1 PUSH2 0x141 JUMP JUMPDEST SWAP2 POP POP PUSH2 0x99 JUMP JUMPDEST DUP1 SWAP2 POP POP JUMPDEST SWAP1 JUMP JUMPDEST PUSH1 0x0 DUP2 SWAP1 POP SWAP2 SWAP1 POP JUMP JUMPDEST PUSH2 0xAF DUP2 PUSH2 0x9C JUMP JUMPDEST DUP3 MSTORE POP POP JUMP JUMPDEST PUSH1 0x0 PUSH1 0x20 DUP3 ADD SWAP1 POP PUSH2 0xCA PUSH1 0x0 DUP4 ADD DUP5 PUSH2 0xA6 JUMP JUMPDEST SWAP3 SWAP2 POP POP JUMP JUMPDEST PUSH32 0x4E487B7100000000000000000000000000000000000000000000000000000000 PUSH1 0x0 MSTORE PUSH1 0x11 PUSH1 0x4 MSTORE PUSH1 0x24 PUSH1 0x0 REVERT JUMPDEST PUSH1 0x0 PUSH2 0x10A DUP3 PUSH2 0x9C JUMP JUMPDEST SWAP2 POP PUSH2 0x115 DUP4 PUSH2 0x9C JUMP JUMPDEST SWAP3 POP DUP3 DUP3 MUL PUSH2 0x123 DUP2 PUSH2 0x9C JUMP JUMPDEST SWAP2 POP DUP3 DUP3 DIV DUP5 EQ DUP4 ISZERO OR PUSH2 0x13A JUMPI PUSH2 0x139 PUSH2 0xD0 JUMP JUMPDEST JUMPDEST POP SWAP3 SWAP2 POP POP JUMP JUMPDEST PUSH1 0x0 PUSH2 0x14C DUP3 PUSH2 0x9C JUMP JUMPDEST SWAP2 POP PUSH2 0x157 DUP4 PUSH2 0x9C JUMP JUMPDEST SWAP3 POP DUP3 DUP3 SUB SWAP1 POP DUP2 DUP2 GT ISZERO PUSH2 0x16F JUMPI PUSH2 0x16E PUSH2 0xD0 JUMP JUMPDEST JUMPDEST SWAP3 SWAP2 POP POP JUMP INVALID LOG2 PUSH5 0x6970667358 0x22 SLT KECCAK256 PUSH25 0x598A8C30B877E4EA63E8C664DAACD8D66D95BDE543A49B420C 0xCE CALLDATALOAD SWAP1 0xF 0x4D SDIV PUSH5 0x736F6C6343 STOP ADDMOD SLT STOP CALLER "
		},
		"gasEstimates": {
			"creation": {
				"codeDepositCost": "85400",
				"executionCost": "66453",
				"totalCost": "151853"
			},
			"external": {
				"finalize()": "infinite"
			}
		},
		"methodIdentifiers": {
			"finalize()": "4bb278f3"
		}
	},
	"abi": [
		{
			"inputs": [],
			"name": "finalize",
			"outputs": [
				{
					"internalType": "uint256",
					"name": "",
					"type": "uint256"
				}
			],
			"stateMutability": "view",
			"type": "function"
		}
	]
}