{
	"data": {
		"bytecode": {
			"linkReferences": {},
			"object": "6080604052602d600055600460015534801561001a57600080fd5b5061044e8061002a6000396000f3fe608060405234801561001057600080fd5b50600436106100575760003560e01c8063166e7bdd1461005c578063273d1a3e1461007a5780635da0e693146100aa578063de1126f6146100da578063e581bdca1461010a575b600080fd5b610064610128565b60405161007191906101cb565b60405180910390f35b610094600480360381019061008f9190610223565b61014e565b6040516100a1919061025f565b60405180910390f35b6100c460048036038101906100bf91906102a6565b610155565b6040516100d191906101cb565b60405180910390f35b6100f460048036038101906100ef91906102d3565b610171565b60405161010191906101cb565b60405180910390f35b61011261018c565b60405161011f91906101cb565b60405180910390f35b60008060029050600060039050600081836101439190610342565b905080935050505090565b6000919050565b6000806001548361016691906103a5565b905080915050919050565b600080828461018091906103d6565b90508091505092915050565b60008060019050600060059050600081836101a79190610342565b905080935050505090565b6000819050919050565b6101c5816101b2565b82525050565b60006020820190506101e060008301846101bc565b92915050565b600080fd5b60008115159050919050565b610200816101eb565b811461020b57600080fd5b50565b60008135905061021d816101f7565b92915050565b600060208284031215610239576102386101e6565b5b60006102478482850161020e565b91505092915050565b610259816101eb565b82525050565b60006020820190506102746000830184610250565b92915050565b610283816101b2565b811461028e57600080fd5b50565b6000813590506102a08161027a565b92915050565b6000602082840312156102bc576102bb6101e6565b5b60006102ca84828501610291565b91505092915050565b600080604083850312156102ea576102e96101e6565b5b60006102f885828601610291565b925050602061030985828601610291565b9150509250929050565b7f4e487b7100000000000000000000000000000000000000000000000000000000600052601160045260246000fd5b600061034d826101b2565b9150610358836101b2565b92508282019050808211156103705761036f610313565b5b92915050565b7f4e487b7100000000000000000000000000000000000000000000000000000000600052601260045260246000fd5b60006103b0826101b2565b91506103bb836101b2565b9250826103cb576103ca610376565b5b828204905092915050565b60006103e1826101b2565b91506103ec836101b2565b92508282026103fa816101b2565b9150828204841483151761041157610410610313565b5b509291505056fea264697066735822122010e3cde4890dec8d4c9326e0f85730a1ffe9334eef46c5e4d238b29266b7618364736f6c63430008120033",
			"opcodes": "PUSH1 0x80 PUSH1 0x40 MSTORE PUSH1 0x2D PUSH1 0x0 SSTORE PUSH1 0x4 PUSH1 0x1 SSTORE CALLVALUE DUP1 ISZERO PUSH2 0x1A JUMPI PUSH1 0x0 DUP1 REVERT JUMPDEST POP PUSH2 0x44E DUP1 PUSH2 0x2A PUSH1 0x0 CODECOPY PUSH1 0x0 RETURN INVALID PUSH1 0x80 PUSH1 0x40 MSTORE CALLVALUE DUP1 ISZERO PUSH2 0x10 JUMPI PUSH1 0x0 DUP1 REVERT JUMPDEST POP PUSH1 0x4 CALLDATASIZE LT PUSH2 0x57 JUMPI PUSH1 0x0 CALLDATALOAD PUSH1 0xE0 SHR DUP1 PUSH4 0x166E7BDD EQ PUSH2 0x5C JUMPI DUP1 PUSH4 0x273D1A3E EQ PUSH2 0x7A JUMPI DUP1 PUSH4 0x5DA0E693 EQ PUSH2 0xAA JUMPI DUP1 PUSH4 0xDE1126F6 EQ PUSH2 0xDA JUMPI DUP1 PUSH4 0xE581BDCA EQ PUSH2 0x10A JUMPI JUMPDEST PUSH1 0x0 DUP1 REVERT JUMPDEST PUSH2 0x64 PUSH2 0x128 JUMP JUMPDEST PUSH1 0x40 MLOAD PUSH2 0x71 SWAP2 SWAP1 PUSH2 0x1CB JUMP JUMPDEST PUSH1 0x40 MLOAD DUP1 SWAP2 SUB SWAP1 RETURN JUMPDEST PUSH2 0x94 PUSH1 0x4 DUP1 CALLDATASIZE SUB DUP2 ADD SWAP1 PUSH2 0x8F SWAP2 SWAP1 PUSH2 0x223 JUMP JUMPDEST PUSH2 0x14E JUMP JUMPDEST PUSH1 0x40 MLOAD PUSH2 0xA1 SWAP2 SWAP1 PUSH2 0x25F JUMP JUMPDEST PUSH1 0x40 MLOAD DUP1 SWAP2 SUB SWAP1 RETURN JUMPDEST PUSH2 0xC4 PUSH1 0x4 DUP1 CALLDATASIZE SUB DUP2 ADD SWAP1 PUSH2 0xBF SWAP2 SWAP1 PUSH2 0x2A6 JUMP JUMPDEST PUSH2 0x155 JUMP JUMPDEST PUSH1 0x40 MLOAD PUSH2 0xD1 SWAP2 SWAP1 PUSH2 0x1CB JUMP JUMPDEST PUSH1 0x40 MLOAD DUP1 SWAP2 SUB SWAP1 RETURN JUMPDEST PUSH2 0xF4 PUSH1 0x4 DUP1 CALLDATASIZE SUB DUP2 ADD SWAP1 PUSH2 0xEF SWAP2 SWAP1 PUSH2 0x2D3 JUMP JUMPDEST PUSH2 0x171 JUMP JUMPDEST PUSH1 0x40 MLOAD PUSH2 0x101 SWAP2 SWAP1 PUSH2 0x1CB JUMP JUMPDEST PUSH1 0x40 MLOAD DUP1 SWAP2 SUB SWAP1 RETURN JUMPDEST PUSH2 0x112 PUSH2 0x18C JUMP JUMPDEST PUSH1 0x40 MLOAD PUSH2 0x11F SWAP2 SWAP1 PUSH2 0x1CB JUMP JUMPDEST PUSH1 0x40 MLOAD DUP1 SWAP2 SUB SWAP1 RETURN JUMPDEST PUSH1 0x0 DUP1 PUSH1 0x2 SWAP1 POP PUSH1 0x0 PUSH1 0x3 SWAP1 POP PUSH1 0x0 DUP2 DUP4 PUSH2 0x143 SWAP2 SWAP1 PUSH2 0x342 JUMP JUMPDEST SWAP1 POP DUP1 SWAP4 POP POP POP POP SWAP1 JUMP JUMPDEST PUSH1 0x0 SWAP2 SWAP1 POP JUMP JUMPDEST PUSH1 0x0 DUP1 PUSH1 0x1 SLOAD DUP4 PUSH2 0x166 SWAP2 SWAP1 PUSH2 0x3A5 JUMP JUMPDEST SWAP1 POP DUP1 SWAP2 POP POP SWAP2 SWAP1 POP JUMP JUMPDEST PUSH1 0x0 DUP1 DUP3 DUP5 PUSH2 0x180 SWAP2 SWAP1 PUSH2 0x3D6 JUMP JUMPDEST SWAP1 POP DUP1 SWAP2 POP POP SWAP3 SWAP2 POP POP JUMP JUMPDEST PUSH1 0x0 DUP1 PUSH1 0x1 SWAP1 POP PUSH1 0x0 PUSH1 0x5 SWAP1 POP PUSH1 0x0 DUP2 DUP4 PUSH2 0x1A7 SWAP2 SWAP1 PUSH2 0x342 JUMP JUMPDEST SWAP1 POP DUP1 SWAP4 POP POP POP POP SWAP1 JUMP JUMPDEST PUSH1 0x0 DUP2 SWAP1 POP SWAP2 SWAP1 POP JUMP JUMPDEST PUSH2 0x1C5 DUP2 PUSH2 0x1B2 JUMP JUMPDEST DUP3 MSTORE POP POP JUMP JUMPDEST PUSH1 0x0 PUSH1 0x20 DUP3 ADD SWAP1 POP PUSH2 0x1E0 PUSH1 0x0 DUP4 ADD DUP5 PUSH2 0x1BC JUMP JUMPDEST SWAP3 SWAP2 POP POP JUMP JUMPDEST PUSH1 0x0 DUP1 REVERT JUMPDEST PUSH1 0x0 DUP2 ISZERO ISZERO SWAP1 POP SWAP2 SWAP1 POP JUMP JUMPDEST PUSH2 0x200 DUP2 PUSH2 0x1EB JUMP JUMPDEST DUP2 EQ PUSH2 0x20B JUMPI PUSH1 0x0 DUP1 REVERT JUMPDEST POP JUMP JUMPDEST PUSH1 0x0 DUP2 CALLDATALOAD SWAP1 POP PUSH2 0x21D DUP2 PUSH2 0x1F7 JUMP JUMPDEST SWAP3 SWAP2 POP POP JUMP JUMPDEST PUSH1 0x0 PUSH1 0x20 DUP3 DUP5 SUB SLT ISZERO PUSH2 0x239 JUMPI PUSH2 0x238 PUSH2 0x1E6 JUMP JUMPDEST JUMPDEST PUSH1 0x0 PUSH2 0x247 DUP5 DUP3 DUP6 ADD PUSH2 0x20E JUMP JUMPDEST SWAP2 POP POP SWAP3 SWAP2 POP POP JUMP JUMPDEST PUSH2 0x259 DUP2 PUSH2 0x1EB JUMP JUMPDEST DUP3 MSTORE POP POP JUMP JUMPDEST PUSH1 0x0 PUSH1 0x20 DUP3 ADD SWAP1 POP PUSH2 0x274 PUSH1 0x0 DUP4 ADD DUP5 PUSH2 0x250 JUMP JUMPDEST SWAP3 SWAP2 POP POP JUMP JUMPDEST PUSH2 0x283 DUP2 PUSH2 0x1B2 JUMP JUMPDEST DUP2 EQ PUSH2 0x28E JUMPI PUSH1 0x0 DUP1 REVERT JUMPDEST POP JUMP JUMPDEST PUSH1 0x0 DUP2 CALLDATALOAD SWAP1 POP PUSH2 0x2A0 DUP2 PUSH2 0x27A JUMP JUMPDEST SWAP3 SWAP2 POP POP JUMP JUMPDEST PUSH1 0x0 PUSH1 0x20 DUP3 DUP5 SUB SLT ISZERO PUSH2 0x2BC JUMPI PUSH2 0x2BB PUSH2 0x1E6 JUMP JUMPDEST JUMPDEST PUSH1 0x0 PUSH2 0x2CA DUP5 DUP3 DUP6 ADD PUSH2 0x291 JUMP JUMPDEST SWAP2 POP POP SWAP3 SWAP2 POP POP JUMP JUMPDEST PUSH1 0x0 DUP1 PUSH1 0x40 DUP4 DUP6 SUB SLT ISZERO PUSH2 0x2EA JUMPI PUSH2 0x2E9 PUSH2 0x1E6 JUMP JUMPDEST JUMPDEST PUSH1 0x0 PUSH2 0x2F8 DUP6 DUP3 DUP7 ADD PUSH2 0x291 JUMP JUMPDEST SWAP3 POP POP PUSH1 0x20 PUSH2 0x309 DUP6 DUP3 DUP7 ADD PUSH2 0x291 JUMP JUMPDEST SWAP2 POP POP SWAP3 POP SWAP3 SWAP1 POP JUMP JUMPDEST PUSH32 0x4E487B7100000000000000000000000000000000000000000000000000000000 PUSH1 0x0 MSTORE PUSH1 0x11 PUSH1 0x4 MSTORE PUSH1 0x24 PUSH1 0x0 REVERT JUMPDEST PUSH1 0x0 PUSH2 0x34D DUP3 PUSH2 0x1B2 JUMP JUMPDEST SWAP2 POP PUSH2 0x358 DUP4 PUSH2 0x1B2 JUMP JUMPDEST SWAP3 POP DUP3 DUP3 ADD SWAP1 POP DUP1 DUP3 GT ISZERO PUSH2 0x370 JUMPI PUSH2 0x36F PUSH2 0x313 JUMP JUMPDEST JUMPDEST SWAP3 SWAP2 POP POP JUMP JUMPDEST PUSH32 0x4E487B7100000000000000000000000000000000000000000000000000000000 PUSH1 0x0 MSTORE PUSH1 0x12 PUSH1 0x4 MSTORE PUSH1 0x24 PUSH1 0x0 REVERT JUMPDEST PUSH1 0x0 PUSH2 0x3B0 DUP3 PUSH2 0x1B2 JUMP JUMPDEST SWAP2 POP PUSH2 0x3BB DUP4 PUSH2 0x1B2 JUMP JUMPDEST SWAP3 POP DUP3 PUSH2 0x3CB JUMPI PUSH2 0x3CA PUSH2 0x376 JUMP JUMPDEST JUMPDEST DUP3 DUP3 DIV SWAP1 POP SWAP3 SWAP2 POP POP JUMP JUMPDEST PUSH1 0x0 PUSH2 0x3E1 DUP3 PUSH2 0x1B2 JUMP JUMPDEST SWAP2 POP PUSH2 0x3EC DUP4 PUSH2 0x1B2 JUMP JUMPDEST SWAP3 POP DUP3 DUP3 MUL PUSH2 0x3FA DUP2 PUSH2 0x1B2 JUMP JUMPDEST SWAP2 POP DUP3 DUP3 DIV DUP5 EQ DUP4 ISZERO OR PUSH2 0x411 JUMPI PUSH2 0x410 PUSH2 0x313 JUMP JUMPDEST JUMPDEST POP SWAP3 SWAP2 POP POP JUMP INVALID LOG2 PUSH5 0x6970667358 0x22 SLT KECCAK256 LT 0xE3 0xCD 0xE4 DUP10 0xD 0xEC DUP14 0x4C SWAP4 0x26 0xE0 0xF8 JUMPI ADDRESS LOG1 SELFDESTRUCT 0xE9 CALLER 0x4E 0xEF CHAINID 0xC5 0xE4 0xD2 CODESIZE 0xB2 SWAP3 PUSH7 0xB7618364736F6C PUSH4 0x43000812 STOP CALLER "
		},
		"gasEstimates": {
			"creation": {
				"codeDepositCost": "220400",
				"executionCost": "44475",
				"totalCost": "264875"
			},
			"external": {
				"addNewValues()": "infinite",
				"addValues()": "infinite",
				"divideCalculator(uint256)": "infinite",
				"multiplyCalculator(uint256,uint256)": "infinite",
				"remoteControlOpen(bool)": "infinite"
			}
		},
		"methodIdentifiers": {
			"addNewValues()": "e581bdca",
			"addValues()": "166e7bdd",
			"divideCalculator(uint256)": "5da0e693",
			"multiplyCalculator(uint256,uint256)": "de1126f6",
			"remoteControlOpen(bool)": "273d1a3e"
		}
	},
	"abi": [
		{
			"inputs": [],
			"name": "addNewValues",
			"outputs": [
				{
					"internalType": "uint256",
					"name": "",
					"type": "uint256"
				}
			],
			"stateMutability": "view",
			"type": "function"
		},
		{
			"inputs": [],
			"name": "addValues",
			"outputs": [
				{
					"internalType": "uint256",
					"name": "",
					"type": "uint256"
				}
			],
			"stateMutability": "view",
			"type": "function"
		},
		{
			"inputs": [
				{
					"internalType": "uint256",
					"name": "a",
					"type": "uint256"
				}
			],
			"name": "divideCalculator",
			"outputs": [
				{
					"internalType": "uint256",
					"name": "",
					"type": "uint256"
				}
			],
			"stateMutability": "view",
			"type": "function"
		},
		{
			"inputs": [
				{
					"internalType": "uint256",
					"name": "a",
					"type": "uint256"
				},
				{
					"internalType": "uint256",
					"name": "b",
					"type": "uint256"
				}
			],
			"name": "multiplyCalculator",
			"outputs": [
				{
					"internalType": "uint256",
					"name": "",
					"type": "uint256"
				}
			],
			"stateMutability": "view",
			"type": "function"
		},
		{
			"inputs": [
				{
					"internalType": "bool",
					"name": "closedDoor",
					"type": "bool"
				}
			],
			"name": "remoteControlOpen",
			"outputs": [
				{
					"internalType": "bool",
					"name": "",
					"type": "bool"
				}
			],
			"stateMutability": "nonpayable",
			"type": "function"
		}
	]
}