{
	"data": {
		"bytecode": {
			"linkReferences": {},
			"object": "60806040526004600055600660015534801561001a57600080fd5b506103ce8061002a6000396000f3fe608060405234801561001057600080fd5b506004361061004c5760003560e01c806312ae6397146100515780633da0ac791461006f578063ce3e39c014610079578063d7dfa0dd14610097575b600080fd5b6100596100b5565b60405161006691906101d1565b60405180910390f35b6100776100c8565b005b610081610157565b60405161008e91906101d1565b60405180910390f35b61009f61017d565b6040516100ac91906101d1565b60405180910390f35b6000806002905060015490508091505090565b6001546000541161010e576040517f08c379a000000000000000000000000000000000000000000000000000000000815260040161010590610249565b60405180910390fd5b6001546000541115610155576040517f08c379a000000000000000000000000000000000000000000000000000000000815260040161014c906102b5565b60405180910390fd5b565b60008060059050600060089050600081836101729190610304565b905080935050505090565b6000806000905060015460005410801561019957506004600054145b156101b1576001546000546101ae9190610364565b90505b8091505090565b6000819050919050565b6101cb816101b8565b82525050565b60006020820190506101e660008301846101c2565b92915050565b600082825260208201905092915050565b7f66616c7365000000000000000000000000000000000000000000000000000000600082015250565b60006102336005836101ec565b915061023e826101fd565b602082019050919050565b6000602082019050818103600083015261026281610226565b9050919050565b7f5468697320636f6d7061726973696f6e2069732066616c736500000000000000600082015250565b600061029f6019836101ec565b91506102aa82610269565b602082019050919050565b600060208201905081810360008301526102ce81610292565b9050919050565b7f4e487b7100000000000000000000000000000000000000000000000000000000600052601260045260246000fd5b600061030f826101b8565b915061031a836101b8565b92508261032a576103296102d5565b5b828206905092915050565b7f4e487b7100000000000000000000000000000000000000000000000000000000600052601160045260246000fd5b600061036f826101b8565b915061037a836101b8565b925082820190508082111561039257610391610335565b5b9291505056fea264697066735822122033a82f63d6c23db1f79c9426fc3b2dbdef87762164c7e40072bf34d81da15fc264736f6c63430008120033",
			"opcodes": "PUSH1 0x80 PUSH1 0x40 MSTORE PUSH1 0x4 PUSH1 0x0 SSTORE PUSH1 0x6 PUSH1 0x1 SSTORE CALLVALUE DUP1 ISZERO PUSH2 0x1A JUMPI PUSH1 0x0 DUP1 REVERT JUMPDEST POP PUSH2 0x3CE DUP1 PUSH2 0x2A PUSH1 0x0 CODECOPY PUSH1 0x0 RETURN INVALID PUSH1 0x80 PUSH1 0x40 MSTORE CALLVALUE DUP1 ISZERO PUSH2 0x10 JUMPI PUSH1 0x0 DUP1 REVERT JUMPDEST POP PUSH1 0x4 CALLDATASIZE LT PUSH2 0x4C JUMPI PUSH1 0x0 CALLDATALOAD PUSH1 0xE0 SHR DUP1 PUSH4 0x12AE6397 EQ PUSH2 0x51 JUMPI DUP1 PUSH4 0x3DA0AC79 EQ PUSH2 0x6F JUMPI DUP1 PUSH4 0xCE3E39C0 EQ PUSH2 0x79 JUMPI DUP1 PUSH4 0xD7DFA0DD EQ PUSH2 0x97 JUMPI JUMPDEST PUSH1 0x0 DUP1 REVERT JUMPDEST PUSH2 0x59 PUSH2 0xB5 JUMP JUMPDEST PUSH1 0x40 MLOAD PUSH2 0x66 SWAP2 SWAP1 PUSH2 0x1D1 JUMP JUMPDEST PUSH1 0x40 MLOAD DUP1 SWAP2 SUB SWAP1 RETURN JUMPDEST PUSH2 0x77 PUSH2 0xC8 JUMP JUMPDEST STOP JUMPDEST PUSH2 0x81 PUSH2 0x157 JUMP JUMPDEST PUSH1 0x40 MLOAD PUSH2 0x8E SWAP2 SWAP1 PUSH2 0x1D1 JUMP JUMPDEST PUSH1 0x40 MLOAD DUP1 SWAP2 SUB SWAP1 RETURN JUMPDEST PUSH2 0x9F PUSH2 0x17D JUMP JUMPDEST PUSH1 0x40 MLOAD PUSH2 0xAC SWAP2 SWAP1 PUSH2 0x1D1 JUMP JUMPDEST PUSH1 0x40 MLOAD DUP1 SWAP2 SUB SWAP1 RETURN JUMPDEST PUSH1 0x0 DUP1 PUSH1 0x2 SWAP1 POP PUSH1 0x1 SLOAD SWAP1 POP DUP1 SWAP2 POP POP SWAP1 JUMP JUMPDEST PUSH1 0x1 SLOAD PUSH1 0x0 SLOAD GT PUSH2 0x10E JUMPI PUSH1 0x40 MLOAD PUSH32 0x8C379A000000000000000000000000000000000000000000000000000000000 DUP2 MSTORE PUSH1 0x4 ADD PUSH2 0x105 SWAP1 PUSH2 0x249 JUMP JUMPDEST PUSH1 0x40 MLOAD DUP1 SWAP2 SUB SWAP1 REVERT JUMPDEST PUSH1 0x1 SLOAD PUSH1 0x0 SLOAD GT ISZERO PUSH2 0x155 JUMPI PUSH1 0x40 MLOAD PUSH32 0x8C379A000000000000000000000000000000000000000000000000000000000 DUP2 MSTORE PUSH1 0x4 ADD PUSH2 0x14C SWAP1 PUSH2 0x2B5 JUMP JUMPDEST PUSH1 0x40 MLOAD DUP1 SWAP2 SUB SWAP1 REVERT JUMPDEST JUMP JUMPDEST PUSH1 0x0 DUP1 PUSH1 0x5 SWAP1 POP PUSH1 0x0 PUSH1 0x8 SWAP1 POP PUSH1 0x0 DUP2 DUP4 PUSH2 0x172 SWAP2 SWAP1 PUSH2 0x304 JUMP JUMPDEST SWAP1 POP DUP1 SWAP4 POP POP POP POP SWAP1 JUMP JUMPDEST PUSH1 0x0 DUP1 PUSH1 0x0 SWAP1 POP PUSH1 0x1 SLOAD PUSH1 0x0 SLOAD LT DUP1 ISZERO PUSH2 0x199 JUMPI POP PUSH1 0x4 PUSH1 0x0 SLOAD EQ JUMPDEST ISZERO PUSH2 0x1B1 JUMPI PUSH1 0x1 SLOAD PUSH1 0x0 SLOAD PUSH2 0x1AE SWAP2 SWAP1 PUSH2 0x364 JUMP JUMPDEST SWAP1 POP JUMPDEST DUP1 SWAP2 POP POP SWAP1 JUMP JUMPDEST PUSH1 0x0 DUP2 SWAP1 POP SWAP2 SWAP1 POP JUMP JUMPDEST PUSH2 0x1CB DUP2 PUSH2 0x1B8 JUMP JUMPDEST DUP3 MSTORE POP POP JUMP JUMPDEST PUSH1 0x0 PUSH1 0x20 DUP3 ADD SWAP1 POP PUSH2 0x1E6 PUSH1 0x0 DUP4 ADD DUP5 PUSH2 0x1C2 JUMP JUMPDEST SWAP3 SWAP2 POP POP JUMP JUMPDEST PUSH1 0x0 DUP3 DUP3 MSTORE PUSH1 0x20 DUP3 ADD SWAP1 POP SWAP3 SWAP2 POP POP JUMP JUMPDEST PUSH32 0x66616C7365000000000000000000000000000000000000000000000000000000 PUSH1 0x0 DUP3 ADD MSTORE POP JUMP JUMPDEST PUSH1 0x0 PUSH2 0x233 PUSH1 0x5 DUP4 PUSH2 0x1EC JUMP JUMPDEST SWAP2 POP PUSH2 0x23E DUP3 PUSH2 0x1FD JUMP JUMPDEST PUSH1 0x20 DUP3 ADD SWAP1 POP SWAP2 SWAP1 POP JUMP JUMPDEST PUSH1 0x0 PUSH1 0x20 DUP3 ADD SWAP1 POP DUP2 DUP2 SUB PUSH1 0x0 DUP4 ADD MSTORE PUSH2 0x262 DUP2 PUSH2 0x226 JUMP JUMPDEST SWAP1 POP SWAP2 SWAP1 POP JUMP JUMPDEST PUSH32 0x5468697320636F6D7061726973696F6E2069732066616C736500000000000000 PUSH1 0x0 DUP3 ADD MSTORE POP JUMP JUMPDEST PUSH1 0x0 PUSH2 0x29F PUSH1 0x19 DUP4 PUSH2 0x1EC JUMP JUMPDEST SWAP2 POP PUSH2 0x2AA DUP3 PUSH2 0x269 JUMP JUMPDEST PUSH1 0x20 DUP3 ADD SWAP1 POP SWAP2 SWAP1 POP JUMP JUMPDEST PUSH1 0x0 PUSH1 0x20 DUP3 ADD SWAP1 POP DUP2 DUP2 SUB PUSH1 0x0 DUP4 ADD MSTORE PUSH2 0x2CE DUP2 PUSH2 0x292 JUMP JUMPDEST SWAP1 POP SWAP2 SWAP1 POP JUMP JUMPDEST PUSH32 0x4E487B7100000000000000000000000000000000000000000000000000000000 PUSH1 0x0 MSTORE PUSH1 0x12 PUSH1 0x4 MSTORE PUSH1 0x24 PUSH1 0x0 REVERT JUMPDEST PUSH1 0x0 PUSH2 0x30F DUP3 PUSH2 0x1B8 JUMP JUMPDEST SWAP2 POP PUSH2 0x31A DUP4 PUSH2 0x1B8 JUMP JUMPDEST SWAP3 POP DUP3 PUSH2 0x32A JUMPI PUSH2 0x329 PUSH2 0x2D5 JUMP JUMPDEST JUMPDEST DUP3 DUP3 MOD SWAP1 POP SWAP3 SWAP2 POP POP JUMP JUMPDEST PUSH32 0x4E487B7100000000000000000000000000000000000000000000000000000000 PUSH1 0x0 MSTORE PUSH1 0x11 PUSH1 0x4 MSTORE PUSH1 0x24 PUSH1 0x0 REVERT JUMPDEST PUSH1 0x0 PUSH2 0x36F DUP3 PUSH2 0x1B8 JUMP JUMPDEST SWAP2 POP PUSH2 0x37A DUP4 PUSH2 0x1B8 JUMP JUMPDEST SWAP3 POP DUP3 DUP3 ADD SWAP1 POP DUP1 DUP3 GT ISZERO PUSH2 0x392 JUMPI PUSH2 0x391 PUSH2 0x335 JUMP JUMPDEST JUMPDEST SWAP3 SWAP2 POP POP JUMP INVALID LOG2 PUSH5 0x6970667358 0x22 SLT KECCAK256 CALLER 0xA8 0x2F PUSH4 0xD6C23DB1 0xF7 SWAP13 SWAP5 0x26 0xFC EXTCODESIZE 0x2D 0xBD 0xEF DUP8 PUSH23 0x2164C7E40072BF34D81DA15FC264736F6C634300081200 CALLER "
		},
		"gasEstimates": {
			"creation": {
				"codeDepositCost": "194800",
				"executionCost": "44450",
				"totalCost": "239250"
			},
			"external": {
				"assign()": "2436",
				"calculator()": "infinite",
				"compare()": "8882",
				"logic()": "infinite"
			}
		},
		"methodIdentifiers": {
			"assign()": "12ae6397",
			"calculator()": "ce3e39c0",
			"compare()": "3da0ac79",
			"logic()": "d7dfa0dd"
		}
	},
	"abi": [
		{
			"inputs": [],
			"name": "assign",
			"outputs": [
				{
					"internalType": "uint256",
					"name": "",
					"type": "uint256"
				}
			],
			"stateMutability": "view",
			"type": "function"
		},
		{
			"inputs": [],
			"name": "calculator",
			"outputs": [
				{
					"internalType": "uint256",
					"name": "",
					"type": "uint256"
				}
			],
			"stateMutability": "view",
			"type": "function"
		},
		{
			"inputs": [],
			"name": "compare",
			"outputs": [],
			"stateMutability": "view",
			"type": "function"
		},
		{
			"inputs": [],
			"name": "logic",
			"outputs": [
				{
					"internalType": "uint256",
					"name": "",
					"type": "uint256"
				}
			],
			"stateMutability": "view",
			"type": "function"
		}
	]
}